:020000040800F2
:10000000000001200D340008290A00082B0A00080E
:100010002D0A00082F0A0008310A0008000000001D
:10002000000000000000000000000000330A00088B
:10003000350A000800000000370A0008390A0008E5
:100040005D3400085D3400085D3400085D3400084C
:100050005D3400085D3400085D3400085D3400083C
:100060005D3400085D3400085D340008410A000872
:100070005D3400085D3400085D3400085D3400081C
:100080005D3400085D3400085D3400085D3400080C
:100090005D3400085D3400085D3400085D340008FC
:1000A0005D3400085D3400085D3400085D340008EC
:1000B000510A000800000000000000005D34000844
:1000C0005D34000800000000000000005D340008FE
:1000D000000000005D3400085D34000800000000EE
:1000E0005D3400085D3400080000000000000000DE
:1000F0000000000000000000000000000000000000
:100100000000000000000000000000005D34000856
:1001100000000000000000005D3400085D340008AD
:100120005D3400085D3400085D3400085D3400086B
:100130005D34000800000000000000000000000026
:100140005D3400085D3400085D3400085D3400084B
:100150005D3400085D3400085D3400085D3400083B
:100160005D3400085D3400085D34000800000000C4
:100170005D3400085D34000800000000000000004D
:100180005D3400085D3400085D34000800000000A4
:1001900010B5054C237833B9044B13B10448AFF3C1
:1001A00000800123237010BD7000002000000000BB
:1001B0001436000808B5034B1BB103490348AFF3DD
:1001C000008008BD00000000740000201436000804
:1001D00053B94AB9002908BF00281CBF4FF0FF31AE
:1001E0004FF0FF3000F072B9ADF1080C6DE904CEAC
:1001F00000F006F8DDF804E0DDE9022304B0704702
:100200002DE9F047089E04468846002B4BD18A42D0
:10021000154667D9B2FA82F24AB1C2F1200701FA53
:1002200002F320FA07F7954047EA030894404FEAA3
:10023000154E230CB8FBFEF71FFA85FC0EFB178842
:1002400043EA084307FB0CF1994209D9EB1807F17F
:10025000FF3080F01B81994240F21881023F2B440D
:100260005B1AA4B2B3FBFEF00EFB103344EA034466
:1002700000FB0CFCA44509D92C1900F1FF3380F0D8
:100280000781A44540F2048102382C4440EA07402B
:10029000A4EB0C0400271EB1D4400023C6E90043A0
:1002A0003946BDE8F0878B4209D9002E00F0EB807B
:1002B0000027C6E9000138463946BDE8F087B3FAA1
:1002C00083F7002F47D18B4202D3824200F2FA809B
:1002D000841A61EB030301209846002EE0D0C6E9A2
:1002E0000048DDE702B9FFDEB2FA82F2002A40F0F0
:1002F0008F80491B4FEA154E1FFA85F80127B1FB85
:10030000FEFC230C0EFB1C1143EA014308FB0CF11D
:10031000994207D9EB180CF1FF3002D2994200F252
:10032000CD808446591AA3B2B1FBFEF00EFB101427
:1003300043EA044408FB00F8A04507D92C1900F152
:10034000FF3302D2A04500F2B6801846A4EB0804A1
:1003500040EA0C409FE7C7F1200CBB4022FA0CFE9C
:100360004EEA030E01FA07F420FA0CF521FA0CF319
:100370004FEA1E482543B3FBF8F92C0C08FB193350
:100380001FFA8EFA44EA034309FB0AF49C4202FA7C
:1003900007F200FA07F10BD91EEB030309F1FF3056
:1003A00080F087809C4240F28480A9F10209734466
:1003B0001B1BADB2B3FBF8F008FB103345EA034456
:1003C00000FB0AFAA24508D91EEB040400F1FF3332
:1003D0006BD2A24569D90238744440EA0940A0FBB7
:1003E0000289A4EB0A044C45C2464B4654D351D073
:1003F000002E69D0B1EB0A0564EB030404FA0CFC8F
:10040000FD40FC404CEA0505C6E90054002747E7DB
:10041000C2F1200320FA03F7954001FA02F021FA15
:1004200003F34FEA154E3843010CB3FBFEF71FFAF6
:1004300085F80EFB173341EA034107FB08F38B42B3
:1004400004FA02F407D9691807F1FF3C2FD28B4256
:100450002DD9023F2944CB1A81B2B3FBFEF00EFB2B
:10046000103341EA034100FB08F38B4207D96918B6
:1004700000F1FF3C17D28B4215D902382944C91A22
:1004800040EA07473BE73746304609E70746E7E6D5
:100490001846FBE64145ABD2B8EB020A69EB0E0207
:1004A00001381346A4E76046E9E7184695E7674632
:1004B000D1E781467CE702382C4447E7ACF1020CD7
:1004C0002B442FE7384608E73746E9E6704700BF78
:1004D00030B589B000240594194BDA6C42F004025F
:1004E000DA64DA6C02F004020192019ADA6C42F0EA
:1004F0000102DA64DB6C03F001030293029B4FF408
:10050000004303930225049503230693079303A94D
:100510004FF0904000F074FF01230493059406957A
:100520001023039303A94FF0904000F069FF2023AC
:10053000039303A94FF0904000F062FF09B030BD73
:100540000010024000B583B00A4B9A6C42F00102E1
:100550009A649B6C03F001030193019B00221146F6
:100560000B2000F0C3FD0B2000F0F4FD03B05DF89C
:1005700004FB00BF0010024072B6FEE700B58FB06A
:1005800000230A930B930C930D93079308930993FD
:1005900000930193029303930493059306933648C3
:1005A0004FF080420260436083607322C260036147
:1005B000836102F0A1F970BB0EA94FF4805341F89A
:1005C000103D2D4802F038FB38BB2B4802F0F2F901
:1005D00028BB00230793099307A9274802F04AFC88
:1005E000F8B9264B1B681B0A254AA2FB03231B09EB
:1005F0000F33244A136003EB83035A00224BA3FBFF
:100600000213DB082149A1FB02129208FF2B01D83B
:10061000FF2A08D9FEE7FFF7AFFFFFF7ADFFFFF7AF
:10062000ABFFFFF7A9FFDBB219490B7019490A703C
:1006300060220092019300230293049308226946EA
:100640000D4802F058FA08B1FFF796FF0A48026811
:100650000F239364D36843F4006343F00803D3602B
:1006600002F00AF808B1FFF787FF034800F064F9C9
:100670000FB05DF804FB00BF9401002000000020D3
:10068000598B4F01280200204FECC44EABAAAAAAF6
:10069000A40000204401002010B596B0002413945B
:1006A000149415940C940D940E940F94109411942A
:1006B00012942C22214601A802F0FCFE2848294B66
:1006C00003604FF6FF734360846040F2C543C3602C
:1006D00004614461846102F03EF9002837D10023AF
:1006E00013931493159313A91D4802F0C3FB00281C
:1006F0002FD130230C93FA230D9300230E931093E4
:10070000119312930C220CA9154802F0BFF910BBEB
:100710000023019302930393049305934FF4005233
:100720000692079308934FF0007209920A930B9375
:1007300001A90B4802F0D6FB78B9094C204600F01D
:10074000FBF80C21204602F0F7FA16B010BDFFF7B7
:1007500013FFFFF711FFFFF70FFFFFF70DFF00BFBC
:1007600048010020002C014008B50B480B4B0360EA
:100770004FF4E133436000238360C36003610C22C4
:1007800042618361C3610362436202F00EFE00B9FD
:1007900008BDFFF7F1FE00BFA800002000380140AF
:1007A00000B5ADB0242200211CA802F083FE002178
:1007B00016911791189119911A91542201A802F0DB
:1007C00079FE02231B934FF480721E9240221F92E7
:1007D00025932693012227921422289207222992F8
:1007E0002A9304232B931BA800F0BCFFE0B90F232E
:1007F0001693032317930023189319931A93042134
:1008000016A801F0F5FA88B9012301930023099392
:1008100001A801F079FC58B94FF4007000F0B8FE5F
:1008200040B92DB05DF804FBFFF7A6FEFFF7A4FE6C
:10083000FFF7A2FEFFF7A0FE08B500F023FCFFF7CC
:10084000AFFFFFF745FEFFF77DFEFFF797FEFFF7CF
:1008500023FFFFF789FF00F0A3F900F0B1F9FCE7EF
:1008600082B00A4B1A6E42F001021A661A6E02F04A
:1008700001020092009A9A6D42F080529A659B6D37
:1008800003F080530193019B02B0704700100240B7
:100890000268094B9A4200D0704782B003F5644366
:1008A0001A6E42F400621A661B6E03F40063019331
:1008B000019B02B0704700BF002C01400368B3F1F8
:1008C000804F00D0704710B582B0044603F5043362
:1008D0009A6D42F001029A659B6D03F0010301934A
:1008E000019B1148114B0360042343601023836074
:1008F0000023C360802202614FF4807242618361F1
:100900002023C3614FF400530362094BC362094BB8
:10091000036300F05BFC20B9034BE3629C6202B00E
:1009200010BDFFF729FEF7E7E001002008000240B4
:10093000050F0008B90E000800B589B00023039325
:10094000049305930693079303681B4A934205D0CB
:10095000B3F1804F19D009B05DF804FB174BDA6C86
:1009600042F00102DA64DB6C03F001030193019BA6
:100970004FF400630393022304930123079303A915
:100980004FF0904000F03CFDE5E703F50433DA6CEE
:1009900042F00102DA64DB6C03F001030293029B74
:1009A00004230393022304930123079303A94FF025
:1009B000904000F025FDCEE7002C014000100240E1
:1009C00000B589B00023039304930593069307931E
:1009D0000268144B9A4202D009B05DF804FB03F59B
:1009E00058431A6E42F480421A661A6E02F480422C
:1009F0000192019ADA6C42F00102DA64DB6C03F0D6
:100A000001030293029B4FF4C063039302230493F8
:100A1000032306930723079303A94FF0904000F0A8
:100A2000EFFCD9E700380140FEE7FEE7FEE7FEE70E
:100A3000FEE770477047704708B500F033FB08BD0C
:100A400008B5024800F079FC08BD00BFE0010020B5
:100A500008B5024801F04BFE08BD00BF940100201C
:100A600008B503460B4A126842B10A4A10680344AB
:100A70006A46934206D8074A136008BD054A0649EC
:100A80001160F2E702F0ECFC0C2303604FF0FF3042
:100A9000F3E700BF8C000020180400200F49D1F8B4
:100AA000883043F47003C1F888300D4B1A6842F067
:100AB00001021A60002098601A6822F0A85222F4FD
:100AC00010221A604FF48052DA601A6822F48022F1
:100AD0001A6098614FF000638B60704700ED00E092
:100AE000001002402DE9F0410446884617461E4694
:100AF000002508E00022E25423E00022625428E0AE
:100B00000022E2540135184BA3FB0823B5EB530F29
:100B100028D202F0D7FCB0FBF7F307FB130038B97B
:100B200005EB4503FF22E254591C62540233E254A0
:100B300005EB4503E25CB242DCD9B2FBF6F1521A96
:100B4000E254591C625CB242D7D9B2FBF6F0121AD9
:100B500062540233E25CB242D2D9B2FBF6F1521ACD
:100B6000E254CFE7BDE8F081ABAAAAAA08B500F02D
:100B7000A5FA094B5B68C01A0A2800D808BD00F026
:100B80009DFA054B5860282332224FF4D871034850
:100B9000FFF7A8FFF2E700BF940000202C0200201E
:100BA00008B5054B03221A73044A1A604FF4D87231
:100BB0005A6000F01FFA08BD280100202C02002016
:100BC00008B5064B1B7C03B908BDFFF7CFFF034BED
:100BD00001225A7400F022FAF6E700BF2801002033
:100BE00070B4754DA85CEC5C9DF80C30EA5C01EBD0
:100BF0004101CD00714B2B4414F0800F40F09480E4
:100C00006F490E786D494E5514F0400F00F08F80FB
:100C10006C490978597014F0200F00F08B806949F5
:100C20000978997014F0100F00F0878065490978F1
:100C3000D97014F0080F00F08380624909781971A7
:100C400014F0040F7FD05F490978597114F0020F36
:100C50007CD05C490978997114F0010F79D0594919
:100C60000978D97110F0800F76D155490978197239
:100C700010F0400F73D053490978597210F0200FCB
:100C800070D050490978997210F0100F6DD04D490D
:100C90000978D97210F0080F6AD04A490978197397
:100CA00010F0040F67D047490978597310F0020F0C
:100CB00064D044490978997310F0010F61D041491B
:100CC0000978D97312F0800F5ED13D490978197403
:100CD00012F0400F5BD03B490978597412F0200F95
:100CE00058D038490978997412F0100F55D0354909
:100CF0000978D97412F0080F52D032490978197561
:100D000012F0040F4FD02F490978597512F0020FD5
:100D10004CD02C490978997512F0010F49D1284A15
:100D20001278DA7570BC704726490E786AE7244954
:100D300009786FE72249097873E72149097877E74D
:100D40001F4909787BE71E4909787EE71C49097825
:100D500081E71B49097884E71A49097887E7184928
:100D600009788AE7164909788DE71549097890E7E7
:100D70001349097893E71249097896E710490978E9
:100D800099E70F4909789CE70E4909789FE70C49D4
:100D90000978A2E70A490978A5E709490978A8E787
:100DA00007490978ABE706490978AEE704490978AD
:100DB000B1E7044A1278B4E778360008DC03002073
:100DC000A40000204401002070B582B0056882684C
:100DD000531C8360AA5C5C1C8460EB5C661C8660B0
:100DE0002C5D4568AE4206D0007B009489B2FFF7C7
:100DF000F7FE02B070BD00258560F5E738B5002428
:100E0000264B1C74002C35D0254C204601F01FFCCD
:100E10002268136823F001031360224B1B68224AE7
:100E2000934235D8214A0E21516030225A601C4924
:100E30000A686FF01F0010611A6842F001021A6020
:100E40000B68DA6842F48072DA60194A11684FF070
:100E5000804251620021D163DA6942F02002DA61F6
:100E600014498A6842F001028A601A6842F001025D
:100E70001A6038BD094D05EB04150021A96028460C
:100E8000FFF7A2FF01212846FFF79EFF0134B9E7D3
:100E900002F560720E215160C7E700BF28010020F3
:100EA00094010020E0010020800002400000024088
:100EB00028020020002004E010B582B04FF09043DB
:100EC00002229A610E4B9B69472B10D0002406E04A
:100ED00000210B4800EB0410FFF776FF0134002CD3
:100EE000F6D04FF0904302229A6202B010BD00206B
:100EF0000090034602460146FFF772FEF1E700BF8D
:100F0000280100204FF0904302229A611B4A936906
:100F100001339361482B02D010B5002427E013461B
:100F200000229A6116490B68DA6922F03002DA6110
:100F3000DA6942F04002DA61DA6842F00102DA600E
:100F4000104B1A68136823F0010313600A68D36812
:100F500023F48073D3604FF0904302229A6270476B
:100F60000121064800EB0410FFF72EFF0134002C8E
:100F7000F6D04FF0904302229A6210BD2801002063
:100F800094010020E00100204FF0904302229A617A
:100F9000164B5B69632B24D9144B00225A61144B06
:100FA0001B68196A41F21112114208D1196A40F204
:100FB0004442114203D11A6822F001021A604FF034
:100FC000804300221A600A4B1A68D36823F0010399
:100FD000D360064B01221A744FF0904302229A62AA
:100FE00070470133014A5361F6E700BF2801002032
:100FF0009401002008B53023044A0549054800F053
:1010000061F9054B01221A7408BD00BF3C00004085
:10101000DC030020E00100202801002008B5054B7A
:101020005B7C03B908BD034B00225A74FFF7E6FE50
:10103000F8E700BF28010020104B1B780BB90120F6
:10104000704710B504464FF47A70B0FBF3F30C4AC6
:101050001068B0FBF3F000F08BF868B90F2C01D9E1
:1010600001200AE0002221464FF0FF3000F03EF858
:10107000024B5C60002000E0012010BD0400002055
:101080000000002010B5032000F01EF80020FFF73C
:10109000D3FF10B10124204610BD0446FFF7E0FB4A
:1010A000F9E70000034B1B78034A11680B441360F7
:1010B000704700BF040000200C040020014B18689A
:1010C000704700BF0C040020074AD36823F4E06394
:1010D0001B041B0C000200F4E060184340F0BF60EA
:1010E00040F40030D060704700ED00E030B4174BA2
:1010F000DB68C3F30223C3F10704042C28BF0424D4
:101100001D1D062D18D9033B4FF0FF3505FA04F4D9
:1011100021EA0401994005FA03F322EA0303194383
:1011200000280BDB0901C9B200F1604000F5614005
:1011300080F8001330BC70470023E5E700F00F0093
:101140000901C9B2024B1954F4E700BF00ED00E0F9
:1011500014ED00E0002807DB00F01F024009012326
:101160009340024A42F82030704700BF00E100E09F
:101170000138B0F1807F0AD2064B5860064AF02150
:1011800082F823100020986007221A60704701201F
:10119000704700BF10E000E000ED00E070B4446C68
:1011A00004F01C05066C0124AC40746004686360A4
:1011B0008368102B05D0036899600368DA6070BCFF
:1011C000704703689A600368D960F8E7002869D01F
:1011D00010B403460168344A914245D8334A0A4460
:1011E0003349A1FB0212120992004264314A02649F
:1011F000022283F825201868016821F4FF4121F0BC
:1012000070019A68DC6822431C6922435C692243AE
:101210009C692243DC6922431C6A22430A43026020
:101220009A68B2F5804F15D0196C224A914226D0A7
:10123000214A1168586C00F01C040F20A04021EADC
:1012400000011160116858685C6C04F01C04A04037
:10125000014311600020D863012283F8252083F820
:1012600024005DF8044B7047144A0A441049A1FB5E
:101270000212120992004264114A0264B8E7A832CD
:101280001168586C00F01C040F20A04021EA0001F6
:101290001160116858685C6C04F01C04A0400143A4
:1012A0001160D7E70120704707040240F8FFFDBF37
:1012B000CDCCCCCC00000240A8040240F8FBFDBF1E
:1012C0000004024038B590F82440012C33D00124AA
:1012D00080F8244090F82540E4B2012C04D000238B
:1012E00080F82430022038BD0446022084F825000E
:1012F0000020E0632568286820F00100286020466F
:10130000FFF74CFF236B5BB12268136843F00E03B9
:1013100013602268136843F0010313600020E2E7C2
:101320002268136823F0040313602268136843F0F3
:101330000A031360EDE70220D5E738B5036C19689E
:1013400004682568436C03F01C0304229A400A4297
:1013500015D015F0040F12D0236813F0200F03D11D
:10136000236823F004032360436C03F01C02016C28
:10137000042393404B60036B03B1984738BD0222AE
:101380009A400A421CD015F0020F19D0236813F0BE
:10139000200F06D1236823F00A032360012380F87D
:1013A0002530436C03F01C02016C022393404B6018
:1013B000002380F82430C36A002BDFD09847DDE794
:1013C000082202FA03F30B42D8D015F0080FD5D04B
:1013D000236823F00E032360436C03F01C03016CAD
:1013E000012202FA03F34B60C26380F82520002338
:1013F00080F82430436B002BC0D09847BEE7000034
:10140000F0B583B0002396E086685F000325BD40F9
:1014100026EA0506CD68BD4035438560466826EA64
:1014200004064D68C5F300149C4034434460C5680D
:101430005F000324BC40E44325408E68BE402E4339
:10144000C6604D68022D01D0122D13D1DE0808367A
:1014500050F826E003F007054FEA850C0F2505FA42
:101460000CF52EEA050E0D6905FA0CF545EA0E0598
:1014700040F8265005682C404D6805F00305BD4036
:101480002C4304604C6814F0805F53D0384C256EB8
:1014900045F001052566246E04F001040194019CC9
:1014A0009D08AE1C334C54F8267003F00304A600CC
:1014B0000F24B44027EA0407B0F1904F51D02E4CCE
:1014C000A04250D004F58064A04248D00724B44024
:1014D0003C430235274E46F82540284C2568D44326
:1014E00004EA05064F6817F4803F01D042EA05067A
:1014F000224D2E606D6804EA05064F6817F4003F20
:1015000001D042EA05061D4D6E60AD6804EA05068D
:101510004F6817F4801F01D042EA0506174DAE60F0
:10152000ED682C404E6816F4001F01D042EA050415
:10153000124AD46001330A6832FA03F415D0012448
:101540009C402240F6D04D686E1E012E7FF65CAFA7
:10155000112D3FF459AF122D7FF469AF54E70224E7
:10156000B5E70024B3E70124B1E703B0F0BD00BF45
:101570000010024000000140000400480004014047
:10158000024B186800F4C060704700BF0070004054
:10159000B0F5007F0FD01F4B1B6803F4C063B3F599
:1015A000806F34D01B4A136823F4C06343F4806314
:1015B000136000207047174B1B6803F4C063B3F53A
:1015C000007F22D0134A136823F4C06343F40073EE
:1015D0001360114B1A68322303FB02F30F4AA2FB7C
:1015E00003239B0C013300E0013B0A4A526912F4C9
:1015F000806F01D0002BF7D1064B5B6913F4806F2D
:1016000001D1002070470320704700207047002060
:10161000704700BF007000400000002083DE1B43C5
:1016200030B583B00546204B9B6D13F0805F0BD027
:10163000FFF7A6FFB0F5007F17D0802D1FD82DD063
:10164000702D2DD000211BE0174CA36D43F080536B
:10165000A365A36D03F080530193019BFFF790FFF7
:10166000A36D23F08053A365E4E7802D03D9A02D5B
:1016700003D9022104E0002102E0012100E003215E
:101680000A4A136823F007030B431360136803F03F
:1016900007038B4206D0012003B030BD0221EFE7E3
:1016A0000121EDE70020F7E7001002400020024092
:1016B000284A9368D26802F0030213F00C030AD0A0
:1016C0000C2B06D0042B1FD0082B20D00020024664
:1016D00010E0012AF6D11F4A126812F0080F0CD14F
:1016E0001C4AD2F89420C2F303221B4951F822204D
:1016F00043B100200C2B0DD07047164A1268C2F37C
:101700000312F2E71046F5E714480022F2E7144806
:101710000022EFE70F4BDB6803F00303022B15D029
:10172000032B15D00B4BD868C0F302100130D968D9
:10173000C1F3062102FB01F2B2FBF0F2D868C0F35C
:10174000416001304000B2FBF0F0D5E7034AE9E721
:10175000034AE7E700100240303600080024F40096
:1017600000127A00002800F02783F0B583B0044609
:10177000AF4B9D6805F00C05DE6806F003060368B4
:1017800013F0100F5BD0E5B10C2D18D0A369002B1E
:1017900000F0BC80A64A136843F001031360FFF712
:1017A0008DFC0746A24B1B6813F0020F40F09B8094
:1017B000FFF784FCC01B0228F4D9032308E3012EA1
:1017C000E4D19B4B1B6813F0020F03D0A369002BDD
:1017D00000F0F582206A964B1B6813F0080F5CD06E
:1017E000934B1B6803F0F00398425DD8904B1A6846
:1017F00042F008021A601A6822F0F002216A0A43D5
:101800001A605A6822F47F42E16942EA01225A6072
:10181000002D61D0FFF74CFF854B9B68C3F303138A
:10182000844AD35C03F01F03D840834B1860834B7A
:101830001868FFF701FC0346002840F0C9822368BE
:1018400013F0010F00F08180082D75D00C2D71D0A0
:101850006368B3F5803F00F09780B3F5A02F00F0E8
:101860009980734B1A6822F480321A601A6822F445
:1018700080221A606368002B00F09980FFF71EFC3D
:1018800007466B4B1B6813F4003F5ED1FFF716FC55
:10189000C01B6428F5D903239AE2654BD3F8943032
:1018A0001B0903F0F0039FE7FFF7BAFE002840F0A2
:1018B00088825F4B1A6842F008021A601A6822F0A8
:1018C000F002216A0A431A605A6822F47F42E169F1
:1018D00042EA01225A609DE7206AFFF7A1FE002834
:1018E00098D0012374E2524B1A6842F008021A6041
:1018F0001A6822F0F002216A0A431A605A6822F438
:101900007F42E16942EA01225A6098E7484A136837
:1019100023F001031360FFF7D1FB0746444B1B681C
:1019200013F0020F8BD0FFF7C9FBC01B0228F5D9BB
:1019300003234DE2032E8BD13D4B1B6813F4003F74
:1019400003D06368002B00F03E82236813F0020F7F
:101950004FD0042D3CD00C2D38D0E368002B78D02C
:10196000334A136843F480731360FFF7A7FB0646FE
:101970002F4B1B6813F4806F62D1FFF79FFB801B16
:101980000228F5D9032323E2294A136843F480335C
:1019900013606FE703F18043A3F53C331A6842F408
:1019A00080221A601A6842F480321A6062E7FFF7F8
:1019B00085FB07461E4B1B6813F4003FC5D0FFF79D
:1019C0007DFBC01B6428F5D9032301E2022EC4D19C
:1019D000174B1B6813F4806F03D0E368002B00F0F3
:1019E000F481134A536823F0FE43216943EA0163FB
:1019F0005360236813F0080F56D06369002B3CD066
:101A00000B4AD2F8943043F00103C2F89430FFF748
:101A100055FB0646064BD3F8943013F0020F43D122
:101A2000FFF74CFB801B0228F4D90323D0E100BF51
:101A3000001002406036000800000020080000206E
:101A4000B04A536823F0FE43216943EA01635360BF
:101A5000CFE7AC4A136823F480731360FFF72EFBC3
:101A60000646A84B1B6813F4806FC2D0FFF726FB15
:101A7000801B0228F5D90323AAE1A24AD2F89430A8
:101A800023F00103C2F89430FFF718FB06469D4B84
:101A9000D3F8943013F0020F06D0FFF70FFB801B32
:101AA0000228F4D9032393E1236813F0040F7AD0BA
:101AB000944B9B6D13F0805F0BD1924B9A6D42F06B
:101AC00080529A659B6D03F080530193019B012620
:101AD00000E000268C4B1B6813F4807F26D0A3689F
:101AE000012B37D0052B3DD0864BD3F8902022F028
:101AF0000102C3F89020D3F8902022F00402C3F82A
:101B00009020A368002B3BD0FFF7D8FA07467D4B07
:101B1000D3F8903013F0020F44D1FFF7CFFAC01B77
:101B200041F288339842F2D9032351E1764A13688F
:101B300043F480731360FFF7C1FA0746724B1B68CA
:101B400013F4807FCBD1FFF7B9FAC01B0228F5D977
:101B500003233DE16B4AD2F8903043F00103C2F811
:101B60009030CEE7674BD3F8902042F00402C3F8E0
:101B70009020D3F8902042F00102C3F89020C0E7F3
:101B8000FFF79CFA07465F4BD3F8903013F0020F33
:101B900008D0FFF793FAC01B41F288339842F2D97C
:101BA000032315E1E6B9236813F0200F35D0636AEB
:101BB000E3B1544AD2F8983043F00103C2F89830A8
:101BC000FFF77CFA06464F4BD3F8983013F0020F1C
:101BD00023D1FFF773FA801B0228F4D90323F7E01F
:101BE000484A936D23F080539365DCE7454AD2F869
:101BF000983023F00103C2F89830FFF75FFA0646E9
:101C0000404BD3F8983013F0020F06D0FFF756FA86
:101C1000801B0228F4D90323DAE0A36A002B00F02A
:101C2000D680022B27D00C2D00F0DB80354B1A68B4
:101C300022F080721A601B6813F0006F04D1314AE1
:101C4000D36823F00303D3602E4AD36823F088734C
:101C500023F48033D360FFF731FA0446294B1B6825
:101C600013F0007F00F0A680FFF728FA001B02287F
:101C7000F4D90323ACE0234BDB6803F00301E26AF1
:101C8000914209D00C2D00F0A6801E4B1B6813F06A
:101C9000806F3BD001239BE003F07002216B013980
:101CA000B2EB011FEED103F4FE42616BB2EB012FE8
:101CB000E8D103F07842A16BB2EBC16FE2D103F43B
:101CC000C001E26B5208013AB1EB425FDAD103F096
:101CD000C063226C5208013AB3EB426FD2D1094B78
:101CE0001B6813F0007F78D1064B1A6842F08072AF
:101CF0001A60DA6842F08072DA60FFF7DFF90446B2
:101D000051E000BF0010024000700040364A1368E6
:101D100023F080731360FFF7D1F90546324B1B683F
:101D200013F0007F06D0FFF7C9F9401B0228F5D950
:101D300003234DE02C4AD3682C491940E36A206BF9
:101D4000013843EA0013606B43EA0023E06B40086C
:101D5000013843EA4053206C4008013843EA4063AD
:101D6000A06B43EAC0630B43D360136843F08073F6
:101D70001360D36843F08073D360FFF79FF9044684
:101D8000194B1B6813F0007F06D1FFF797F9001B72
:101D90000228F5D903231BE0002319E0FFF78EF991
:101DA000001B02281BD8104B1B6813F0007FF5D0D6
:101DB00000230DE000230BE00123184670470123A8
:101DC00006E0012304E0012302E0012300E00023F8
:101DD000184603B0F0BD0123FAE70023F8E7032318
:101DE000F6E70123F4E700BF001002408C809D015C
:101DF000002800F09B8070B504464E4B1B6803F032
:101E000007038B420CD24B4A136823F007030B43A2
:101E10001360136803F007038B4201D0012070BDEB
:101E20000D46236813F0010F39D06368032B09D0E6
:101E3000022B26D063BB404A126812F0020F06D173
:101E40000120ECE73C4A126812F0007F70D03A495A
:101E50008A6822F0030213438B60FFF72FF90646CE
:101E6000354B9B6803F00C036268B3EB820F16D00E
:101E7000FFF724F9801B41F288339842F0D9032000
:101E8000CDE72D4A126812F4003FE0D10120C6E7E9
:101E9000294A126812F4806FD9D10120BFE7236864
:101EA00013F0020F06D0244A936823F0F003A168D0
:101EB0000B4393601F4B1B6803F00703AB420CD925
:101EC0001C4A136823F007032B431360136803F0C5
:101ED0000703AB4201D00120A1E7236813F0040FF0
:101EE00006D0154A936823F4E063E1680B439360DE
:101EF000236813F0080F07D00F4A936823F4605348
:101F0000216943EAC1039360FFF7D2FB0A4B9B6848
:101F1000C3F30313094AD35C03F01F03D840084BF3
:101F20001860084B1868FFF787F878E701207047BA
:101F3000012074E7002002400010024060360008D3
:101F40000000002008000020014B1868704700BF07
:101F50000000002008B5FFF7F7FF054B9B68C3F3AF
:101F60000223044AD35C03F01F03D84008BD00BF1E
:101F7000001002407036000808B5FFF7E5FF054B7A
:101F80009B68C3F3C223044AD35C03F01F03D84009
:101F900008BD00BF0010024070360008F8B5594B6C
:101FA000DB6813F0030F18D0564BDB6803F0030314
:101FB0000268934202D001252846F8BD002A00F0AD
:101FC0009F80504BDB68C3F3021301334268934296
:101FD00001D00125F0E700251AE00368022B58D054
:101FE000032B5DD0012B01D001250FE0454A12687B
:101FF00012F0020F60D0434DEA6822F07302446889
:10200000013C43EA04131343EB600025002DD3D1B8
:102010000F4604463B4A136823F080631360FFF7C2
:102020004DF80646374B1B6813F0006F05D0FFF7DD
:1020300045F8801B0228F5D90325002DBCD1002FBF
:102040003CD130490B6923F0784323F4FE43A06868
:10205000E268D20642EA002213430B61294A136860
:1020600043F080631360FFF729F80646254B1B6891
:1020700013F0006F05D1FFF721F8801B0228F5D976
:102080000325002D98D11F4A1369A1690B431361E1
:1020900092E71C4A126812F4806FACD10125B5E7B3
:1020A000184A126812F4003FA5D1164A126812F4B9
:1020B000802FA0D10125A9E70125A7E7012F0FD087
:1020C0001048026922F0C06222F4FE42A1686369EE
:1020D0005B08013B5B0643EA012313430361BDE751
:1020E0000848026922F4C00222F4FE42A168236972
:1020F0005B08013B5B0543EA012313430361ADE742
:10210000012559E7001002402DE9F04182B0044654
:10211000036813F4006F26D0C36BB3F5000F06D02D
:10212000B3F5400F1DD09BB1012637461DE0AE4AE6
:10213000D36843F48033D3600027AB4AD2F88830A9
:1021400023F44003E16B0B43C2F8883000260CE017
:1021500000210430FFF722FF07460028EDD0064695
:1021600003E00027E9E700263746236813F4003F21
:102170006BD09D4B9B6D13F0805F4CD19A4B9A6D49
:1021800042F080529A659B6D03F080530193019B4E
:102190004FF00108954A136843F480731360FEF70B
:1021A0008DFF0546914B1B6813F4807F05D1FEF728
:1021B00085FF401B0228F5D90327002F40D18A4B09
:1021C000D3F8903013F4407315D0226D9A4212D098
:1021D000854AD2F8903023F44073D2F8901041F43D
:1021E0008031C2F89010D2F8901021F48031C2F8FA
:1021F0009010C2F8903013F0010F0FD1002F40F073
:10220000C980794AD2F8903023F44073216D0B4392
:10221000C2F8903015E04FF00008BBE7FEF74EFF24
:102220000546714BD3F8903013F0020FE6D1FEF75C
:1022300045FF401B41F288339842F2D90327DDE77E
:102240003E46B8F1000F40F0A780236813F0010F5D
:1022500008D0654AD2F8883023F00303216A0B4383
:10226000C2F88830236813F0020F08D05E4AD2F813
:10227000883023F00C03616A0B43C2F8883023686E
:1022800013F0200F08D0584AD2F8883023F4406366
:10229000A16A0B43C2F88830236813F4007F08D08A
:1022A000514AD2F8883023F44023616B0B43C2F8C3
:1022B0008830236813F4806F08D04B4AD2F88830F6
:1022C00023F44013A16B0B43C2F88830236813F04A
:1022D000400F08D0444AD2F8883023F44053E16AD2
:1022E0000B43C2F88830236813F4807F08D03E4A3D
:1022F000D2F8883023F44033216B0B43C2F8883086
:10230000236813F4005F0FD0374AD2F8883023F0E7
:102310004063216C0B43C2F88830236CB3F1006F2B
:1023200040D0B3F1806F42D0236813F4802F0FD0D8
:102330002D4AD2F8883023F04063616C0B43C2F819
:102340008830636CB3F1006F39D0B3F1806F3BD04C
:10235000236813F4804F0CD0234AD2F8883023F03E
:102360004053A16C0B43C2F88830A36CB3F1805F7B
:1023700032D0236813F4004F08D01B4AD2F88830BB
:1023800023F08043E16C0B43C2F88830304602B042
:10239000BDE8F0813E4654E7134A936D23F0805325
:1023A000936552E7D36843F48013D360BCE70121FF
:1023B000201DFFF7F3FD0028B6D00646B4E7D3682A
:1023C00043F48013D360C3E70121201DFFF7E6FD2E
:1023D0000028BDD00646BBE70221201DFFF7DEFD29
:1023E0000028C6D00646C4E7001002400070004036
:1023F00030B4036A23F001030362036A446882690C
:1024000022F4803222F073020D682A4323F0020383
:102410008D682B43144DA84207D005F5A055A8425E
:1024200003D005F58065A84205D123F00803CD68E7
:102430002B4323F004030C4DA84207D005F5A0550B
:10244000A84203D005F58065A84205D124F4407563
:102450004C692C438D692C43446082614A68426315
:10246000036230BC704700BF002C014030B4036AE7
:1024700023F480730362036A4268C46924F48034DD
:1024800024F073040D682C4323F400738D6843EA31
:102490000523124DA84219D0104DA84207D005F5CA
:1024A000A055A84203D005F58065A84207D122F4C3
:1024B00040524D6942EA05128D6942EA05124260B6
:1024C000C4614A68C263036230BC704723F400638E
:1024D000CD6843EA052323F48063DDE7002C014047
:1024E00030B4036A23F480530362026A4468C36908
:1024F00023F0807323F4E6430D6843EA052322F4B6
:1025000000528D6842EA05320B4DA84207D005F50E
:10251000A055A84203D005F58065A84204D124F453
:1025200080444D6944EA85144460C3614B68036488
:10253000026230BC704700BF002C014030B4036A17
:1025400023F480330362036A4468426D22F48032CC
:1025500022F070020D682A4323F400338D6843EAA9
:1025600005430B4DA84207D005F5A055A84203D05E
:1025700005F58065A84204D124F480344D6944EA0D
:102580000524446042654A688265036230BC704736
:10259000002C014030B4036A23F480130362026A02
:1025A0004468436D23F0807323F4E0430D6843EAED
:1025B000052322F400128D6842EA05520B4DA84211
:1025C00007D005F5A055A84203D005F58065A842BF
:1025D00004D124F480244D6944EA85244460436591
:1025E0004B68C365026230BC704700BF002C0140DD
:1025F00010B4036A046A24F001040462846924F0BC
:10260000F00444EA021223F00A030B4382610362DE
:102610005DF8044B704710B4036A23F010030362A3
:102620008469036A24F4704444EA023223F0A0036C
:1026300043EA0113826103625DF8044B70478368CB
:1026400023F07003194341F007018160704703686C
:10265000196A41F21112114208D1196A40F244423A
:10266000114203D11A6822F001021A60012380F896
:102670003D3000207047000090F83D30DBB2012B68
:1026800001D001207047022380F83D300268D368F2
:1026900043F00103D3600368104A93420CD0B3F1B6
:1026A000804F09D002F5A052934205D01A6842F03B
:1026B00001021A60002070479968094A0A40062AF8
:1026C00008D0B2F5803F07D01A6842F001021A60C4
:1026D000002070470020704700207047002C014008
:1026E000070001007047704770477047704710B58A
:1026F000044603681A6912F0020F11D0DA6812F06A
:10270000020F0DD06FF002021A61012303770368F4
:102710009B6913F0030F79D0FFF7E6FF00232377BF
:1027200023681A6912F0040F12D0DA6812F0040F4D
:102730000ED06FF004021A610223237723689B698D
:1027400013F4407F68D02046FFF7CEFF00232377A5
:1027500023681A6912F0080F12D0DA6812F0080F15
:102760000ED06FF008021A61042323772368DB6917
:1027700013F0030F57D02046FFF7B6FF002323774F
:1027800023681A6912F0100F12D0DA6812F0100FD5
:102790000ED06FF010021A61082323772368DB69DB
:1027A00013F4407F46D02046FFF79EFF0023237797
:1027B00023681A6912F0010F03D0DA6812F0010FD2
:1027C0003FD123681A6912F0800F03D0DA6812F043
:1027D000800F3DD123681A6912F4807F03D0DA6834
:1027E00012F0800F3BD123681A6912F0400F03D01A
:1027F000DA6812F0400F39D123681A6912F0200FFD
:1028000003D0DA6812F0200F37D110BDFFF76BFF4D
:102810002046FFF76AFF81E72046FFF764FF204666
:10282000FFF763FF92E72046FFF75DFF2046FFF7C3
:102830005CFFA3E72046FFF756FF2046FFF755FF52
:10284000B4E76FF001021A612046FEF79DFBB8E77E
:102850006FF080021A61204600F089FBBAE76FF43E
:1028600080721A61204600F083FBBCE76FF04002E3
:102870001A612046FFF73AFFBEE76FF020021A61A7
:10288000204600F073FBC0E703681A4A904202D06A
:10289000B0F1804F03D123F070034A681343154A07
:1028A00090420AD0B0F1804F07D002F5A05290427A
:1028B00003D002F58062904203D123F44073CA68CA
:1028C000134323F080034A69134303608B68C36298
:1028D0000B688362074B984207D003F5A0539842D8
:1028E00003D003F58063984201D10B690363012390
:1028F00043617047002C014058B310B5044690F86E
:102900003D300BB3022384F83D30211D2068FFF7D2
:10291000BBFF012384F8483084F83E3084F83F3010
:1029200084F8403084F8413084F8423084F84330F1
:1029300084F8443084F8453084F8463084F84730D1
:1029400084F83D30002010BD80F83C30FDF7B6FF24
:10295000D8E70120704758B310B5044690F83D30D1
:102960000BB3022384F83D30211D2068FFF78CFF54
:10297000012384F8483084F83E3084F83F3084F8EE
:10298000403084F8413084F8423084F8433084F891
:10299000443084F8453084F8463084F8473084F871
:1029A0003D30002010BD80F83C30FDF771FFD8E7C6
:1029B0000120704758B310B5044690F83D300BB372
:1029C000022384F83D30211D2068FFF75DFF0123BD
:1029D00084F8483084F83E3084F83F3084F8403042
:1029E00084F8413084F8423084F8433084F844302D
:1029F00084F8453084F8463084F8473084F83D3018
:102A0000002010BD80F83C30FFF76CFED8E70120B5
:102A10007047000030B4036A23F010030362036AB6
:102A20004468826922F0807222F4E6420D6842EA2C
:102A3000052223F020038D6843EA0513124DA842B6
:102A400019D0114DA84207D005F5A055A84203D0D2
:102A500005F58065A84207D124F440644D6944EA35
:102A600085048D6944EA8504446082614A68826312
:102A7000036230BC704723F08003CD6843EA05133E
:102A800023F04003DDE700BF002C014090F83C300C
:102A9000012B2ED010B50446012380F83C30142AB7
:102AA0000FD8DFE802F00B0E0E0E120E0E0E160EF1
:102AB0000E0E1A0E0E0E1E0E0E0E22000068FFF7EE
:102AC00097FC002084F83C0010BD0068FFF7A2FFCF
:102AD000F7E70068FFF7CAFCF3E70068FFF700FDBF
:102AE000EFE70068FFF72AFDEBE70068FFF752FD0C
:102AF000E7E70220704738B590F83C30012B00F032
:102B00008C800D460446012380F83C30142A1ED8E0
:102B1000DFE802F00B1D1D1D211D1D1D351D1D1D96
:102B2000481D1D1D5C1D1D1D6F000068FFF760FC2A
:102B30002268936943F0080393612268936923F044
:102B4000040393612268936929690B439361002010
:102B500084F83C0038BD0068FFF75CFF2268936989
:102B600043F4006393612268936923F48063936163
:102B700022689369296943EA01239361E7E70068C2
:102B8000FFF774FC2268D36943F00803D36122681D
:102B9000D36923F00403D3612268D36929690B4305
:102BA000D361D4E70068FFF79BFC2268D36943F444
:102BB0000063D3612268D36923F48063D361226800
:102BC000D369296943EA0123D361C0E70068FFF7AD
:102BD000B5FC2268536D43F0080353652268536DBA
:102BE00023F0040353652268536D29690B43536531
:102BF000ADE70068FFF7CEFC2268536D43F4006335
:102C000053652268536D23F4806353652268536DC6
:102C1000296943EA0123536599E702209AE710B432
:102C2000846824F47F4442EA03230B4323438360F4
:102C30005DF8044B7047000090F83C30012B64D0E5
:102C400010B50446012380F83C30022380F83D3063
:102C5000026890682E4B034093600B68402B4AD06B
:102C600013D9602B3DD01ED9702B28D0B3F5005F4F
:102C700030D1CB684A6889682068FFF7D0FF2268A6
:102C8000936843F48043936024E0102B06D004D96A
:102C9000202B03D0302B01D01CE0DBB91946206873
:102CA000FFF7CDFC16E0502B14D1CA6849682068A4
:102CB000FFF79EFC50212068FFF7C1FC0AE0CB68BB
:102CC0004A6889682068FFF7AAFF2268936843F082
:102CD00077039360012384F83D30002084F83C00A2
:102CE00010BDCA6849682068FFF795FC602120681C
:102CF000FFF7A5FCEEE7CA6849682068FFF778FC93
:102D000040212068FFF79BFCE4E70220704700BFEA
:102D10008800FEFF10B401F01F01012303FA01F443
:102D2000036A23EA04030362036A8A4013430362CB
:102D30005DF8044B704700000A46002936D190F830
:102D40003E30DBB213F1FF3318BF0123002B40F0FC
:102D5000878010B5002A59D1022380F83E301146F1
:102D6000044601220068FFF7D5FF23683F4A9342DB
:102D700007D002F5A052934203D002F5806293423D
:102D800003D15A6C42F400425A642368374A934292
:102D900058D0B3F1804F55D002F5A052934251D094
:102DA0001A6842F001021A60002010BD04290DD0FB
:102DB000082913D00C2919D010291FD090F84330BE
:102DC000DBB213F1FF3318BF0123BFE790F83F30A8
:102DD000DBB213F1FF3318BF0123B7E790F840309F
:102DE000DBB213F1FF3318BF0123AFE790F8413096
:102DF000DBB213F1FF3318BF0123A7E790F842308D
:102E0000DBB213F1FF3318BF01239FE7042A09D077
:102E1000082A0BD00C2A0DD0102A0FD0022380F8DC
:102E200043309CE7022380F83F3098E7022380F884
:102E3000403094E7022380F8413090E7022380F885
:102E400042308CE799680A4A0A40062A0AD0B2F54D
:102E5000803F09D01A6842F001021A600020A4E7FE
:102E6000012070470020A0E700209EE7002C0140D1
:102E70000700010090F83C30012B2FD030B4012323
:102E800080F83C30022380F83D3002685368956832
:102E9000134CA2421DD023F070030C6823435360EF
:102EA00003680F4A934206D0B3F1804F03D002F576
:102EB000A052934204D125F080058A6815439D6095
:102EC000012380F83D30002380F83C30184630BCA8
:102ED000704723F470034C682343DCE702207047FB
:102EE000002C014090F83C30012B3BD010B4012362
:102EF00080F83C30CB6823F440738A68134323F492
:102F000080634A68134323F400630A68134323F47D
:102F100080530A69134323F400534A69134323F48B
:102F200080438A6A134323F470238A6943EA024385
:102F300002680D4CA24207D05364002380F83C3055
:102F400018465DF8044B704723F470034C6A43EA5B
:102F5000045323F08073CC69234323F00073096A80
:102F60000B43E9E702207047002C0140704770478F
:102F7000704700002DE9D84804460168836802695B
:102F8000134342691343C269134308688C4A0240E1
:102F900013430B602268536823F44053E1680B43EA
:102FA0005360A1692268874B9A4201D0236A194372
:102FB000936823F430630B4393602368824A9342FF
:102FC0001CD0824A93422DD07E4A934243D0102295
:102FD0007C498B425ED0E369B3F5004F00F08C80F2
:102FE000082A00F2E780DFE812F0B700CE00B50053
:102FF000E500D100E500E500E500D40002F5584207
:10300000D2F8882002F00302032A09D8DFE802F090
:1030100002043C060122DBE70422D9E70822D7E7B5
:103020001022D5E702F5E632D2F8882002F00C0231
:103030000C2A0ED8DFE802F0070D0D0D090D0D0D5D
:103040002A0D0D0D0B000022C2E70422C0E7082262
:10305000BEE71022BCE702F5C832D2F8882002F49D
:103060004062B2F5806F0BD007D9B2F5006F0FD078
:10307000B2F5406F06D10822AAE71AB90022A7E7E5
:103080000422A5E71022A3E70222A1E702229FE77C
:1030900002229DE7082A7FD8DFE802F0087E107E32
:1030A0000D7E7E7E05004FF4004008E0FEF752FFE3
:1030B00028B9002062E0FEF7FBFAF9E744486268AD
:1030C00002EB4203834269D8B0EB023F68D8002389
:1030D000070E0602500816EB000B47F1000C58468D
:1030E0006146FDF775F8A0F540723A4B9A4259D8FF
:1030F0002368D860002041E0082A55D8DFE802F0B4
:1031000007210554245454542700314803E0FEF7A6
:1031100021FF00284AD06268530803EB4003B3FB49
:10312000F2F39BB2A3F110014FF6EF7291423FD838
:1031300023F00F02C3F3420313432268D36000203D
:103140001CE0FEF719FFE4E7FEF7B2FAE1E74FF4FF
:103150000040E0E71E4802E0FEF7FCFE60B3636853
:1031600000EB5300B0FBF3F080B2A0F110024FF679
:10317000EF739A4222D82368D86000200023236688
:103180006366BDE8D888FEF7F7FEE7E7FEF790FA3A
:10319000E4E74FF40040E2E70120EFE70120EDE72C
:1031A0000120EBE70120E9E70120E7E70020E5E760
:1031B0000120E3E70120E1E70020DFE70120DDE770
:1031C000F369FFEF008000400038014000440040F8
:1031D0000024F400FFFC0F00436A13F0010F06D037
:1031E0000268536823F40033816A0B435360436AD7
:1031F00013F0020F06D00268536823F48033C16ACB
:103200000B435360436A13F0040F06D002685368FF
:1032100023F48023016B0B435360436A13F0080FC0
:1032200006D00268536823F40043416B0B4353609C
:10323000436A13F0100F06D00268936823F480539A
:10324000816B0B439360436A13F0200F06D0026832
:10325000936823F40053C16B0B439360436A13F0EC
:10326000400F0AD00268536823F48013016C0B43AB
:103270005360036CB3F5801F0BD0436A13F0800FCB
:1032800006D00268536823F40023816C0B4353601B
:1032900070470268536823F4C003416C0B435360CA
:1032A000EBE72DE9F04104460F4616469846069D89
:1032B0002368DB6937EA03030CBF01230023B34211
:1032C0003AD1B5F1FF3FF3D0FDF7F8FEA0EB0800CF
:1032D000A8421FD8F5B123681A6812F0040FE7D08E
:1032E000DA6912F4006FE3D04FF400621A622268C8
:1032F000136823F4D07313602268936823F00103EA
:10330000936020236367A367E367002384F870302A
:10331000032012E02268136823F4D073136022683C
:10332000936823F00103936020236367A36700235E
:1033300084F87030032000E00020BDE8F08130B553
:1033400083B004460023C367FDF7B8FE0546236833
:103350001B6813F0080F0CD123681B6813F0040FCF
:1033600015D120236367A367002084F8700003B0A1
:1033700030BD6FF07E430093034600224FF40011EE
:103380002046FFF78EFF0028E6D00320EFE76FF01E
:103390007E4300932B4600224FF480012046FFF726
:1033A00080FF0028DDD00320E1E768B310B50446B4
:1033B000436F03B3242363672268136823F0010378
:1033C00013602046FFF7D6FD012813D0636ABBB90E
:1033D0002268536823F4904353602268936823F073
:1033E0002A0393602268136843F0010313602046A8
:1033F000FFF7A5FF10BD80F87030FDF7E1FAD9E7BF
:103400002046FFF7E9FEE3E701207047DFF834D0FC
:10341000FDF744FB002103E00B4B5B5843500431A4
:103420000A480B4B42189A42F6D30A4A02E000239C
:1034300042F8043B084B9A42F9D300F017F8FDF725
:10344000FBF9FEE700000120903700080000002093
:10345000700000207000002014040020FEE700002F
:10346000014B1868704700BF0C00002070B50D4E6E
:103470000D4CA41BA4100025A54209D10B4E0C4CE9
:1034800000F0C8F8A41BA4100025A54205D170BD0A
:1034900056F8253098470135EEE756F8253098471D
:1034A0000135F2E7803700088037000880370008D0
:1034B0008437000802440346934200D1704703F862
:1034C000011BF9E738B5134B1C68A36B7BB91820B7
:1034D00000F02CF8104A114BA063C0E90023104BF8
:1034E00083600B23838101220023C0E90423A16BA5
:1034F0000C480A694B690C4C504304FB0300A2FBC7
:1035000004230344541C43F10005C1E9044525F09C
:10351000004038BD0C0000200E33CDAB34126DE6F8
:10352000ECDE05002DF451582D7F954C024B0146E1
:10353000186800F003B800BF0C00002070B5CD1C67
:1035400025F0030508350C2D38BF0C25002D064647
:1035500001DBA94203D90C233360002070BD00F0C9
:1035600057F8214A1468214691B9204C23681BB9A9
:10357000304600F03DF820602946304600F038F82B
:10358000431C24D10C233360304600F042F8E4E7BA
:103590000B685B1B18D40B2B0FD90B60CD50CC18CC
:1035A000304600F036F804F10B00231D20F0070030
:1035B000C31AD3D05A42E250D0E78C424B6816BFB0
:1035C000636013600C46EBE70C464968CCE7C41C0B
:1035D00024F00304A04205D0211A304600F008F878
:1035E0000130CFD02560DBE79C000020A000002048
:1035F00038B5064C0023054608462360FDF730FA2F
:10360000431C02D1236803B12B6038BD1004002095
:1036100070477047F8B500BFF8BC08BC9E467047BD
:10362000F8B500BFF8BC08BC9E467047000000001B
:10363000A0860100400D0300801A060000350C0032
:1036400040420F0080841E0000093D0000127A00F5
:103650000024F40000366E010048E801006CDC0232
:103660000000000000000000010203040607080932
:103670000000000001020304000000000000000040
:10368000000000000000000000000000000000003A
:10369000000000000101010101010101010101011E
:1036A00001020202020202020203030303030303F4
:1036B00004040404040505050506060606070707B5
:1036C000070808080909090A0A0A0B0B0B0C0C0D5C
:1036D0000D0D0E0E0F0F10101111121213131414E2
:1036E0001515161617181819191A1B1B1C1D1D1E47
:1036F0001F202021222323242526272728292A2B7F
:103700002C2D2E2F303132323334363738393A3B84
:103710003C3D3E3F40424344454648494A4B4D4E5E
:103720004F515253555657595A5C5D5F60626365FD
:103730006668696B6D6E7072737577787A7C7E7F60
:1037400081838587898A8C8E90929496989A9C9E84
:10375000A0A2A4A7A9ABADAFB1B4B6B8BABDBFC162
:10376000C4C6C8CBCDD0D2D5D7DADCDFE1E4E7E9F7
:08377000ECEFF1F4F7F9FCFFA6
:0837780088CAFF7F0100000078
:08378000B50100080000000083
:0837880091010008000000009F
:1037900000093D00010000001000000010000020A2
:1037A0000000000000000000000000000000000019
:1037B0000000000000000000000000000000000009
:1037C00000000000000000000000000000000000F9
:1037D00000000000000000000000000000000000E9
:1037E00000000000000000000000000000000000D9
:1037F00000000000000000000000000000000000C9
:040000050800340DAE
:00000001FF
