:020000040800F2
:100000000000012011310008ED090008EF09000887
:10001000F1090008F3090008F509000800000000D4
:10002000000000000000000000000000F7090008C8
:10003000F909000800000000FB090008FD0900089C
:100040006131000861310008613100086131000848
:100050006131000861310008613100086131000838
:10006000613100086131000861310008050A0008AB
:100070006131000861310008613100086131000818
:100080006131000861310008613100086131000808
:1000900061310008613100086131000861310008F8
:1000A00061310008613100086131000861310008E8
:1000B000613100080000000000000000613100080C
:1000C00061310008000000000000000061310008FC
:1000D00000000000613100086131000800000000EC
:1000E00061310008613100080000000000000000DC
:1000F0000000000000000000000000000000000000
:100100000000000000000000000000006131000855
:1001100000000000000000006131000861310008AB
:100120006131000861310008613100086131000867
:100130006131000800000000000000000000000025
:100140006131000861310008613100086131000847
:100150006131000861310008613100086131000837
:1001600061310008613100086131000800000000C1
:10017000613100086131000800000000000000004B
:1001800061310008613100086131000800000000A1
:1001900010B5054C237833B9044B13B10448AFF3C1
:1001A00000800123237010BD10000020000000001B
:1001B000BC31000808B5034B1BB103490348AFF33A
:1001C000008008BD0000000014000020BC310008C1
:1001D00053B94AB9002908BF00281CBF4FF0FF31AE
:1001E0004FF0FF3000F072B9ADF1080C6DE904CEAC
:1001F00000F006F8DDF804E0DDE9022304B0704702
:100200002DE9F047089E04468846002B4BD18A42D0
:10021000154667D9B2FA82F24AB1C2F1200701FA53
:1002200002F320FA07F7954047EA030894404FEAA3
:10023000154E230CB8FBFEF71FFA85FC0EFB178842
:1002400043EA084307FB0CF1994209D9EB1807F17F
:10025000FF3080F01B81994240F21881023F2B440D
:100260005B1AA4B2B3FBFEF00EFB103344EA034466
:1002700000FB0CFCA44509D92C1900F1FF3380F0D8
:100280000781A44540F2048102382C4440EA07402B
:10029000A4EB0C0400271EB1D4400023C6E90043A0
:1002A0003946BDE8F0878B4209D9002E00F0EB807B
:1002B0000027C6E9000138463946BDE8F087B3FAA1
:1002C00083F7002F47D18B4202D3824200F2FA809B
:1002D000841A61EB030301209846002EE0D0C6E9A2
:1002E0000048DDE702B9FFDEB2FA82F2002A40F0F0
:1002F0008F80491B4FEA154E1FFA85F80127B1FB85
:10030000FEFC230C0EFB1C1143EA014308FB0CF11D
:10031000994207D9EB180CF1FF3002D2994200F252
:10032000CD808446591AA3B2B1FBFEF00EFB101427
:1003300043EA044408FB00F8A04507D92C1900F152
:10034000FF3302D2A04500F2B6801846A4EB0804A1
:1003500040EA0C409FE7C7F1200CBB4022FA0CFE9C
:100360004EEA030E01FA07F420FA0CF521FA0CF319
:100370004FEA1E482543B3FBF8F92C0C08FB193350
:100380001FFA8EFA44EA034309FB0AF49C4202FA7C
:1003900007F200FA07F10BD91EEB030309F1FF3056
:1003A00080F087809C4240F28480A9F10209734466
:1003B0001B1BADB2B3FBF8F008FB103345EA034456
:1003C00000FB0AFAA24508D91EEB040400F1FF3332
:1003D0006BD2A24569D90238744440EA0940A0FBB7
:1003E0000289A4EB0A044C45C2464B4654D351D073
:1003F000002E69D0B1EB0A0564EB030404FA0CFC8F
:10040000FD40FC404CEA0505C6E90054002747E7DB
:10041000C2F1200320FA03F7954001FA02F021FA15
:1004200003F34FEA154E3843010CB3FBFEF71FFAF6
:1004300085F80EFB173341EA034107FB08F38B42B3
:1004400004FA02F407D9691807F1FF3C2FD28B4256
:100450002DD9023F2944CB1A81B2B3FBFEF00EFB2B
:10046000103341EA034100FB08F38B4207D96918B6
:1004700000F1FF3C17D28B4215D902382944C91A22
:1004800040EA07473BE73746304609E70746E7E6D5
:100490001846FBE64145ABD2B8EB020A69EB0E0207
:1004A00001381346A4E76046E9E7184695E7674632
:1004B000D1E781467CE702382C4447E7ACF1020CD7
:1004C0002B442FE7384608E73746E9E6704700BF78
:1004D00000B589B00023059303F1804303F504338D
:1004E000DA6C42F00402DA64DA6C02F0040201927F
:1004F000019ADA6C42F00102DA64DB6C03F001036A
:100500000293029B4FF400430393022304930323BB
:100510000693079303A94FF0904000F0ABFC09B09D
:100520005DF804FB00B583B00A4B9A6C42F00102FF
:100530009A649B6C03F001030193019B0022114616
:100540000B2000F0E5FA0B2000F016FB03B05DF87D
:1005500004FB00BF0010024008B5082102F08AFA2F
:10056000014B01221A6008BD2C00002008B517239A
:1005700004E00F4A212122F81310013B002B08DB75
:1005800001229A400242F4D0094A422122F8131073
:10059000F3E71823064A0821064802F011F9064B32
:1005A0001B68002BFBD0044B00221A6008BD00BF63
:1005B000300000202C0100202C00002072B6FEE745
:1005C00000B58FB000230A930B930C930D93079300
:1005D0000893099300930193029303930493059363
:1005E00006931F484FF0804202604360836063229D
:1005F000C2600361836101F025FE30BB0EA94FF498
:10060000805341F8103D164801F0BCFFF8B914487A
:1006100001F076FEE8B900230793099307A9104873
:1006200002F0AEFAB8B9602300930023019302935D
:100630000493082269460A4801F003FF68B9084894
:1006400000F05CF90FB05DF804FBFFF7B7FFFFF7B0
:10065000B5FFFFF7B3FFFFF7B1FFFFF7AFFF00BF35
:100660002C01002010B596B0002413941494159416
:100670000C940D940E940F941094119412942C22B7
:10068000214601A802F092FD2848294B03604FF64D
:10069000FF734360846040F2C543C36004614461FA
:1006A000846101F0FEFD002837D1002313931493D9
:1006B000159313A91D4802F063FA00282FD13023A7
:1006C0000C93FA230D9300230E931093119312931E
:1006D0000C220CA9154801F07FFE10BB00230193EA
:1006E00002930393049305934FF4005206920793E9
:1006F00008934FF0007209920A930B9301A90B48DB
:1007000002F076FA78B9094C204600F0F7F80C218F
:10071000204601F0B7FF16B010BDFFF74FFFFFF7FF
:100720004DFFFFF74BFFFFF749FF00BFE000002040
:10073000002C014008B50B480B4B03604FF4E1332C
:10074000436000238360C36003610C2242618361C4
:10075000C3610362436202F0AAFC00B908BDFFF75F
:100760002DFF00BF600000200038014000B5ADB093
:10077000242200211CA802F019FD002116911791D6
:10078000189119911A91542201A802F00FFD022329
:100790001B934FF480721E9240221F922593269342
:1007A0000122279214222892072229922A930423B5
:1007B0002B931BA800F010FDE0B90F231693032321
:1007C00017930023189319931A93042116A801F084
:1007D00049F888B9012301930023099301A801F086
:1007E000CDF958B94FF4007000F00CFC40B92DB0B1
:1007F0005DF804FBFFF7E2FEFFF7E0FEFFF7DEFE29
:10080000FFF7DCFE08B500F04FF9FFF7AFFFFFF789
:100810005FFEFFF787FEFFF7D3FEFFF723FFFFF72B
:1008200089FF0248FFF7A2FEFBE700BF35723400E4
:1008300082B00A4B1A6E42F001021A661A6E02F07A
:1008400001020092009A9A6D42F080529A659B6D67
:1008500003F080530193019B02B0704700100240E7
:100860000268094B9A4200D0704782B003F5644396
:100870001A6E42F400621A661B6E03F40063019361
:10088000019B02B0704700BF002C01400368B3F128
:10089000804F00D0704710B582B0044603F5043392
:1008A0009A6D42F001029A659B6D03F0010301937A
:1008B000019B1048104B03600423436010238360A6
:1008C0000023C360802202614FF4807242614FF4C2
:1008D00080628261C3614FF40053036200F088F9C3
:1008E00020B9044BE3629C6202B010BDFFF766FEC4
:1008F000F7E700BF780100200800024000B589B08A
:1009000000230393049305930693079303681B4AFC
:10091000934205D0B3F1804F19D009B05DF804FBC4
:10092000174BDA6C42F00102DA64DB6C03F001036E
:100930000193019B4FF4006303930223049301236B
:10094000079303A94FF0904000F094FAE5E703F510
:100950000433DA6C42F00102DA64DB6C03F0010369
:100960000293029B0423039302230493012307931E
:1009700003A94FF0904000F07DFACEE7002C014033
:100980000010024000B589B000230393049305933F
:10099000069307930268144B9A4202D009B05DF89F
:1009A00004FB03F558431A6E42F480421A661A6E2D
:1009B00002F480420192019ADA6C42F00102DA6498
:1009C000DB6C03F001030293029B4FF4C0630393BB
:1009D00002230493032306930723079303A94FF0ED
:1009E000904000F047FAD9E700380140FEE7FEE703
:1009F000FEE7FEE7FEE770477047704708B500F076
:100A000063F808BD08B5024800F0D1F908BD00BF81
:100A1000780100200F49D1F8883043F47003C1F801
:100A200088300D4B1A6842F001021A60002098606D
:100A30001A6822F0A85222F410221A604FF4805251
:100A4000DA601A6822F480221A6098614FF000631D
:100A50008B60704700ED00E000100240104B1B78E7
:100A60000BB90120704710B504464FF47A70B0FB03
:100A7000F3F30C4A1068B0FBF3F000F08BF868B9A0
:100A80000F2C01D901200AE0002221464FF0FF304F
:100A900000F03EF8024B5C60002000E0012010BD39
:100AA000040000200000002010B5032000F01EF814
:100AB0000020FFF7D3FF10B10124204610BD0446EB
:100AC000FFF7B6FEF9E70000034B1B78034A1168F5
:100AD0000B441360704700BF04000020C0010020D9
:100AE000014B1868704700BFC0010020074AD36857
:100AF00023F4E0631B041B0C000200F4E0601843C5
:100B000040F0BF6040F40030D060704700ED00E07E
:100B100030B4174BDB68C3F30223C3F10704042C82
:100B200028BF04241D1D062D18D9033B4FF0FF35A7
:100B300005FA04F421EA0401994005FA03F322EAD4
:100B40000303194300280BDB0901C9B200F160401F
:100B500000F5614080F8001330BC70470023E5E7E2
:100B600000F00F000901C9B2024B1954F4E700BFAD
:100B700000ED00E014ED00E0002807DB00F01F02AC
:100B8000400901239340024A42F82030704700BFD9
:100B900000E100E00138B0F1807F0AD2064B5860D6
:100BA000064AF02182F823100020986007221A607C
:100BB00070470120704700BF10E000E000ED00E04A
:100BC00070B4446C04F01C05066C0124AC407460E5
:100BD000046863608368102B05D00368996003681C
:100BE000DA6070BC704703689A600368D960F8E700
:100BF000002869D010B403460168344A914245D8B0
:100C0000334A0A443349A1FB02121209920042649A
:100C1000314A0264022283F825201868016821F411
:100C2000FF4121F070019A68DC6822431C6922436D
:100C30005C6922439C692243DC6922431C6A22438B
:100C40000A4302609A68B2F5804F15D0196C224AA7
:100C5000914226D0214A1168586C00F01C040F20E4
:100C6000A04021EA00011160116858685C6C04F032
:100C70001C04A040014311600020D863012283F8C6
:100C8000252083F824005DF8044B7047144A0A4479
:100C90001049A1FB0212120992004264114A026437
:100CA000B8E7A8321168586C00F01C040F20A0406F
:100CB00021EA00011160116858685C6C04F01C04A2
:100CC000A04001431160D7E70120704707040240AC
:100CD000F8FFFDBFCDCCCCCC00000240A804024000
:100CE000F8FBFDBF0004024038B590F82440012C09
:100CF00033D0012480F8244090F82540E4B2012C40
:100D000004D0002380F82430022038BD044602209D
:100D100084F825000020E0632568286820F00100A1
:100D200028602046FFF74CFF236B5BB122681368F5
:100D300043F00E0313602268136843F0010313604D
:100D40000020E2E72268136823F00403136022689E
:100D5000136843F00A031360EDE70220D5E708B5F6
:100D600090F82530DBB2022B03D00423C3630120AB
:100D700008BD0268136823F00E031360026813684D
:100D800023F001031360436C03F01C03016C012288
:100D900002FA03F34B6080F82520002380F824300A
:100DA000836B13B198470020E2E70020E0E738B5F5
:100DB000036C196804682568436C03F01C03042263
:100DC0009A400A4215D015F0040F12D0236813F090
:100DD000200F03D1236823F004032360436C03F046
:100DE0001C02016C042393404B60036B03B19847D2
:100DF00038BD02229A400A421CD015F0020F19D0C9
:100E0000236813F0200F06D1236823F00A03236020
:100E1000012380F82530436C03F01C02016C02238F
:100E200093404B60002380F82430C36A002BDFD04E
:100E30009847DDE7082202FA03F30B42D8D015F0F9
:100E4000080FD5D0236823F00E032360436C03F012
:100E50001C03016C012202FA03F34B60C26380F8A9
:100E60002520002380F82430436B002BC0D0984706
:100E7000BEE70000F0B583B0002396E086685F000F
:100E80000325BD4026EA0506CD68BD403543856093
:100E9000466826EA04064D68C5F300149C403443B6
:100EA0004460C5685F000324BC40E44325408E686D
:100EB000BE402E43C6604D68022D01D0122D13D1C5
:100EC000DE08083650F826E003F007054FEA850CE7
:100ED0000F2505FA0CF52EEA050E0D6905FA0CF53D
:100EE00045EA0E0540F8265005682C404D6805F08F
:100EF0000305BD402C4304604C6814F0805F53D060
:100F0000384C256E45F001052566246E04F0010479
:100F10000194019C9D08AE1C334C54F8267003F0DC
:100F20000304A6000F24B44027EA0407B0F1904F51
:100F300051D02E4CA04250D004F58064A04248D03D
:100F40000724B4403C430235274E46F82540284C40
:100F50002568D44304EA05064F6817F4803F01D0A2
:100F600042EA0506224D2E606D6804EA05064F68C8
:100F700017F4003F01D042EA05061D4D6E60AD68D2
:100F800004EA05064F6817F4801F01D042EA0506FF
:100F9000174DAE60ED682C404E6816F4001F01D06E
:100FA00042EA0504124AD46001330A6832FA03F4B3
:100FB00015D001249C402240F6D04D686E1E012EB3
:100FC0007FF65CAF112D3FF459AF122D7FF469AF5E
:100FD00054E70224B5E70024B3E70124B1E703B0E6
:100FE000F0BD00BF001002400000014000040048B6
:100FF00000040140024B186800F4C060704700BF55
:1010000000700040B0F5007F0FD01F4B1B6803F449
:10101000C063B3F5806F34D01B4A136823F4C063F8
:1010200043F48063136000207047174B1B6803F480
:10103000C063B3F5007F22D0134A136823F4C06362
:1010400043F400731360114B1A68322303FB02F35D
:101050000F4AA2FB03239B0C013300E0013B0A4A29
:10106000526912F4806F01D0002BF7D1064B5B69F7
:1010700013F4806F01D100207047032070470020D7
:1010800070470020704700BF007000400000002043
:1010900083DE1B4330B583B00546204B9B6D13F0B8
:1010A000805F0BD0FFF7A6FFB0F5007F17D0802D33
:1010B0001FD82DD0702D2DD000211BE0174CA36D13
:1010C00043F08053A365A36D03F080530193019B0C
:1010D000FFF790FFA36D23F08053A365E4E7802D15
:1010E00003D9A02D03D9022104E0002102E001214F
:1010F00000E003210A4A136823F007030B4313603F
:10110000136803F007038B4206D0012003B030BD03
:101110000221EFE70121EDE70020F7E70010024090
:1011200000200240284A9368D26802F0030213F0BC
:101130000C030AD00C2B06D0042B1FD0082B20D078
:101140000020024610E0012AF6D11F4A126812F070
:10115000080F0CD11C4AD2F89420C2F303221B4979
:1011600051F8222043B100200C2B0DD07047164AB5
:101170001268C2F30312F2E71046F5E714480022A2
:10118000F2E714480022EFE70F4BDB6803F003039C
:10119000022B15D0032B15D00B4BD868C0F30210CF
:1011A0000130D968C1F3062102FB01F2B2FBF0F273
:1011B000D868C0F3416001304000B2FBF0F0D5E7E1
:1011C000034AE9E7034AE7E700100240D831000884
:1011D0000024F40000127A00002800F02783F0B504
:1011E00083B00446AF4B9D6805F00C05DE6806F041
:1011F0000306036813F0100F5BD0E5B10C2D18D077
:10120000A369002B00F0BC80A64A136843F00103D9
:101210001360FFF765FC0746A24B1B6813F0020F33
:1012200040F09B80FFF75CFCC01B0228F4D903232D
:1012300008E3012EE4D19B4B1B6813F0020F03D08F
:10124000A369002B00F0F582206A964B1B6813F00F
:10125000080F5CD0934B1B6803F0F00398425DD8F5
:10126000904B1A6842F008021A601A6822F0F002E5
:10127000216A0A431A605A6822F47F42E16942EA0D
:1012800001225A60002D61D0FFF74CFF854B9B680F
:10129000C3F30313844AD35C03F01F03D840834B8A
:1012A0001860834B1868FFF7D9FB0346002840F00D
:1012B000C982236813F0010F00F08180082D75D0DA
:1012C0000C2D71D06368B3F5803F00F09780B3F5C3
:1012D000A02F00F09980734B1A6822F480321A60B4
:1012E0001A6822F480221A606368002B00F099804B
:1012F000FFF7F6FB07466B4B1B6813F4003F5ED10C
:10130000FFF7EEFBC01B6428F5D903239AE2654B77
:10131000D3F894301B0903F0F0039FE7FFF7BAFE00
:10132000002840F088825F4B1A6842F008021A6079
:101330001A6822F0F002216A0A431A605A6822F4FD
:101340007F42E16942EA01225A609DE7206AFFF785
:10135000A1FE002898D0012374E2524B1A6842F093
:1013600008021A601A6822F0F002216A0A431A6021
:101370005A6822F47F42E16942EA01225A6098E702
:10138000484A136823F001031360FFF7A9FB0746DF
:10139000444B1B6813F0020F8BD0FFF7A1FBC01B5F
:1013A0000228F5D903234DE2032E8BD13D4B1B6858
:1013B00013F4003F03D06368002B00F03E822368E3
:1013C00013F0020F4FD0042D3CD00C2D38D0E36821
:1013D000002B78D0334A136843F480731360FFF70F
:1013E0007FFB06462F4B1B6813F4806F62D1FFF71B
:1013F00077FB801B0228F5D9032323E2294A1368CF
:1014000043F4803313606FE703F18043A3F53C336B
:101410001A6842F480221A601A6842F480321A6014
:1014200062E7FFF75DFB07461E4B1B6813F4003FA6
:10143000C5D0FFF755FBC01B6428F5D9032301E293
:10144000022EC4D1174B1B6813F4806F03D0E368DE
:10145000002B00F0F481134A536823F0FE43216906
:1014600043EA01635360236813F0080F56D06369A1
:10147000002B3CD00B4AD2F8943043F00103C2F861
:101480009430FFF72DFB0646064BD3F8943013F04B
:10149000020F43D1FFF724FB801B0228F4D903235A
:1014A000D0E100BF00100240083200080000002018
:1014B00008000020B04A536823F0FE43216943EA44
:1014C00001635360CFE7AC4A136823F48073136061
:1014D000FFF706FB0646A84B1B6813F4806FC2D0CB
:1014E000FFF7FEFA801B0228F5D90323AAE1A24ADE
:1014F000D2F8943023F00103C2F89430FFF7F0FAE9
:1015000006469D4BD3F8943013F0020F06D0FFF738
:10151000E7FA801B0228F4D9032393E1236813F030
:10152000040F7AD0944B9B6D13F0805F0BD1924BDC
:101530009A6D42F080529A659B6D03F0805301933F
:10154000019B012600E000268C4B1B6813F4807F72
:1015500026D0A368012B37D0052B3DD0864BD3F87E
:10156000902022F00102C3F89020D3F8902022F0BE
:101570000402C3F89020A368002B3BD0FFF7B0FA19
:1015800007467D4BD3F8903013F0020F44D1FFF79C
:10159000A7FAC01B41F288339842F2D9032351E1E4
:1015A000764A136843F480731360FFF799FA07468D
:1015B000724B1B6813F4807FCBD1FFF791FAC01BED
:1015C0000228F5D903233DE16B4AD2F8903043F06D
:1015D0000103C2F89030CEE7674BD3F8902042F079
:1015E0000402C3F89020D3F8902042F00102C3F81F
:1015F0009020C0E7FFF774FA07465F4BD3F89030AE
:1016000013F0020F08D0FFF76BFAC01B41F28833CA
:101610009842F2D9032315E1E6B9236813F0200FAD
:1016200035D0636AE3B1544AD2F8983043F00103ED
:10163000C2F89830FFF754FA06464F4BD3F898306B
:1016400013F0020F23D1FFF74BFA801B0228F4D9C5
:101650000323F7E0484A936D23F080539365DCE75A
:10166000454AD2F8983023F00103C2F89830FFF7CA
:1016700037FA0646404BD3F8983013F0020F06D0E5
:10168000FFF72EFA801B0228F4D90323DAE0A36ABD
:10169000002B00F0D680022B27D00C2D00F0DB8031
:1016A000354B1A6822F080721A601B6813F0006FC5
:1016B00004D1314AD36823F00303D3602E4AD368A0
:1016C00023F0887323F48033D360FFF709FA0446CC
:1016D000294B1B6813F0007F00F0A680FFF700FA8B
:1016E000001B0228F4D90323ACE0234BDB6803F092
:1016F0000301E26A914209D00C2D00F0A6801E4B36
:101700001B6813F0806F3BD001239BE003F0700255
:10171000216B0139B2EB011FEED103F4FE42616B84
:10172000B2EB012FE8D103F07842A16BB2EBC16FAD
:10173000E2D103F4C001E26B5208013AB1EB425F1F
:10174000DAD103F0C063226C5208013AB3EB426F66
:10175000D2D1094B1B6813F0007F78D1064B1A6871
:1017600042F080721A60DA6842F08072DA60FFF745
:10177000B7F9044651E000BF00100240007000407D
:10178000364A136823F080731360FFF7A9F9054602
:10179000324B1B6813F0007F06D0FFF7A1F9401B06
:1017A0000228F5D903234DE02C4AD3682C4919406F
:1017B000E36A206B013843EA0013606B43EA0023BD
:1017C000E06B4008013843EA4053206C4008013880
:1017D00043EA4063A06B43EAC0630B43D3601368E2
:1017E00043F080731360D36843F08073D360FFF7D6
:1017F00077F90446194B1B6813F0007F06D1FFF7F9
:101800006FF9001B0228F5D903231BE0002319E020
:10181000FFF766F9001B02281BD8104B1B6813F05A
:10182000007FF5D000230DE000230BE001231846D4
:101830007047012306E0012304E0012302E00123B5
:1018400000E00023184603B0F0BD0123FAE70023AF
:10185000F8E70323F6E70123F4E700BF0010024096
:101860008C809D01002800F09B8070B504464E4B93
:101870001B6803F007038B420CD24B4A136823F01A
:1018800007030B431360136803F007038B4201D077
:10189000012070BD0D46236813F0010F39D0636835
:1018A000032B09D0022B26D063BB404A126812F0EA
:1018B000020F06D10120ECE73C4A126812F0007FCB
:1018C00070D03A498A6822F0030213438B60FFF715
:1018D00007F90646354B9B6803F00C036268B3EBCF
:1018E000820F16D0FFF7FCF8801B41F28833984234
:1018F000F0D90320CDE72D4A126812F4003FE0D161
:101900000120C6E7294A126812F4806FD9D101205C
:10191000BFE7236813F0020F06D0244A936823F030
:10192000F003A1680B4393601F4B1B6803F0070390
:10193000AB420CD91C4A136823F007032B431360F6
:10194000136803F00703AB4201D00120A1E723682D
:1019500013F0040F06D0154A936823F4E063E1689E
:101960000B439360236813F0080F07D00F4A936866
:1019700023F46053216943EAC1039360FFF7D2FB6C
:101980000A4B9B68C3F30313094AD35C03F01F039C
:10199000D840084B1860084B1868FFF75FF878E7E5
:1019A00001207047012074E700200240001002402F
:1019B000083200080000002008000020014B1868D1
:1019C000704700BF0000002008B5FFF7F7FF054B88
:1019D0009B68C3F30223044AD35C03F01F03D8407F
:1019E00008BD00BF001002401832000808B5FFF71C
:1019F000E5FF054B9B68C3F3C223044AD35C03F0A5
:101A00001F03D84008BD00BF001002401832000874
:101A1000F8B5594BDB6813F0030F18D0564BDB6851
:101A200003F003030268934202D001252846F8BD63
:101A3000002A00F09F80504BDB68C3F30213013390
:101A40004268934201D00125F0E700251AE00368BF
:101A5000022B58D0032B5DD0012B01D001250FE0C4
:101A6000454A126812F0020F60D0434DEA6822F036
:101A700073024468013C43EA04131343EB600025FE
:101A8000002DD3D10F4604463B4A136823F08063F0
:101A90001360FFF725F80646374B1B6813F0006FFD
:101AA00005D0FFF71DF8801B0228F5D90325002D6E
:101AB000BCD1002F3CD130490B6923F0784323F48B
:101AC000FE43A068E268D20642EA002213430B619B
:101AD000294A136843F080631360FFF701F8064654
:101AE000254B1B6813F0006F05D1FEF7F9FF801B33
:101AF0000228F5D90325002D98D11F4A1369A16941
:101B00000B43136192E71C4A126812F4806FACD148
:101B10000125B5E7184A126812F4003FA5D1164A0C
:101B2000126812F4802FA0D10125A9E70125A7E7AB
:101B3000012F0FD01048026922F0C06222F4FE4249
:101B4000A16863695B08013B5B0643EA0123134319
:101B50000361BDE70848026922F4C00222F4FE4294
:101B6000A16823695B08013B5B0543EA012313433A
:101B70000361ADE7012559E7001002402DE9F0416E
:101B800082B00446036813F4006F26D0C36BB3F52C
:101B9000000F06D0B3F5400F1DD09BB1012637468C
:101BA0001DE0AE4AD36843F48033D3600027AB4ACC
:101BB000D2F8883023F44003E16B0B43C2F888303D
:101BC00000260CE000210430FFF722FF0746002822
:101BD000EDD0064603E00027E9E7002637462368F4
:101BE00013F4003F6BD09D4B9B6D13F0805F4CD185
:101BF0009A4B9A6D42F080529A659B6D03F0805328
:101C00000193019B4FF00108954A136843F48073D8
:101C10001360FEF765FF0546914B1B6813F4807F48
:101C200005D1FEF75DFF401B0228F5D90327002FE1
:101C300040D18A4BD3F8903013F4407315D0226D05
:101C40009A4212D0854AD2F8903023F44073D2F8E9
:101C5000901041F48031C2F89010D2F8901021F425
:101C60008031C2F89010C2F8903013F0010F0FD1FC
:101C7000002F40F0C980794AD2F8903023F44073A5
:101C8000216D0B43C2F8903015E04FF00008BBE720
:101C9000FEF726FF0546714BD3F8903013F0020F84
:101CA000E6D1FEF71DFF401B41F288339842F2D97E
:101CB0000327DDE73E46B8F1000F40F0A780236818
:101CC00013F0010F08D0654AD2F8883023F00303DF
:101CD000216A0B43C2F88830236813F0020F08D042
:101CE0005E4AD2F8883023F00C03616A0B43C2F8D5
:101CF0008830236813F0200F08D0584AD2F8883073
:101D000023F44063A16A0B43C2F88830236813F4BC
:101D1000007F08D0514AD2F8883023F44023616B09
:101D20000B43C2F88830236813F4806F08D04B4A05
:101D3000D2F8883023F44013A16B0B43C2F88830EB
:101D4000236813F0400F08D0444AD2F8883023F4B7
:101D50004053E16A0B43C2F88830236813F4807F54
:101D600008D03E4AD2F8883023F44033216B0B432D
:101D7000C2F88830236813F4005F0FD0374AD2F8D6
:101D8000883023F04063216C0B43C2F88830236C09
:101D9000B3F1006F40D0B3F1806F42D0236813F4E9
:101DA000802F0FD02D4AD2F8883023F04063616C29
:101DB0000B43C2F88830636CB3F1006F39D0B3F1D4
:101DC000806F3BD0236813F4804F0CD0234AD2F8A5
:101DD000883023F04053A16C0B43C2F88830A36CC9
:101DE000B3F1805F32D0236813F4004F08D01B4A50
:101DF000D2F8883023F08043E16C0B43C2F888307E
:101E0000304602B0BDE8F0813E4654E7134A936D78
:101E100023F08053936552E7D36843F48013D36073
:101E2000BCE70121201DFFF7F3FD0028B6D00646D0
:101E3000B4E7D36843F48013D360C3E70121201DC6
:101E4000FFF7E6FD0028BDD00646BBE70221201DB6
:101E5000FFF7DEFD0028C6D00646C4E700100240AA
:101E60000070004030B4036A23F001030362036A88
:101E70004468826922F4803222F073020D682A439A
:101E800023F002038D682B43144DA84207D005F5BB
:101E9000A055A84203D005F58065A84205D123F0DE
:101EA0000803CD682B4323F004030C4DA84207D050
:101EB00005F5A055A84203D005F58065A84205D1D7
:101EC00024F440754C692C438D692C434460826135
:101ED0004A684263036230BC704700BF002C014077
:101EE00030B4036A23F480730362036A4268C469EE
:101EF00024F4803424F073040D682C4323F400731D
:101F00008D6843EA0523124DA84219D0104DA8420E
:101F100007D005F5A055A84203D005F58065A84275
:101F200007D122F440524D6942EA05128D6942EA16
:101F300005124260C4614A68C263036230BC7047E4
:101F400023F40063CD6843EA052323F48063DDE7CF
:101F5000002C014030B4036A23F480530362026A08
:101F60004468C36923F0807323F4E6430D6843EAB1
:101F7000052322F400528D6842EA05320B4DA84237
:101F800007D005F5A055A84203D005F58065A84205
:101F900004D124F480444D6944EA85144460C3614B
:101FA0004B680364026230BC704700BF002C0140E4
:101FB00030B4036A23F480330362036A4468426DD9
:101FC00022F4803222F070020D682A4323F4003399
:101FD0008D6843EA05430B4DA84207D005F5A0558F
:101FE000A84203D005F58065A84204D124F48034CA
:101FF0004D6944EA0524446042654A68826503628B
:1020000030BC7047002C014030B4036A23F48013C5
:102010000362026A4468436D23F0807323F4E04353
:102020000D6843EA052322F400128D6842EA055246
:102030000B4DA84207D005F5A055A84203D005F5E1
:102040008065A84204D124F480244D6944EA8524A3
:10205000446043654B68C365026230BC704700BF93
:10206000002C014010B4036A046A24F001040462E5
:10207000846924F0F00444EA021223F00A030B43BB
:10208000826103625DF8044B704710B4036A23F069
:10209000100303628469036A24F4704444EA023240
:1020A00023F0A00343EA0113826103625DF8044B4D
:1020B0007047836823F07003194341F00701816082
:1020C0007047704710B5846A636A83420ED0A36A72
:1020D000834214D0E36A83421AD0236B834220D018
:1020E0002046FEF739FA0023237710BD012323771A
:1020F000C369002BF4D1012384F83E30F0E70223BA
:102100002377C369002BEBD1012384F83F30E7E745
:1021100004232377C369002BE2D1012384F84030E4
:10212000DEE708232377C369002BD9D1012384F884
:102130004130D5E7704710B5846A636A83420BD09B
:10214000A36A834210D0E36A834210D0236B834298
:1021500004D10823237701E0012323772046FFF7EA
:10216000E9FF0023237710BD02232377F6E704233A
:102170002377F3E7704710B5846A636A834211D00E
:10218000A36A834213D0E36A834216D0236B83424F
:1021900019D0012384F83D302046FFF7EBFF0023E0
:1021A000237710BD0123237784F83E30F4E7022320
:1021B0002377012384F83F30EEE7042323770123BC
:1021C00084F84030E8E708232377012384F841307E
:1021D000E2E7000003681A4A904202D0B0F1804F53
:1021E00003D123F070034A681343154A90420AD082
:1021F000B0F1804F07D002F5A052904203D002F513
:102200008062904203D123F44073CA68134323F0E1
:1022100080034A69134303608B68C3620B6883625F
:10222000074B984207D003F5A053984203D003F51B
:102230008063984201D10B690363012343617047B6
:10224000002C014058B310B5044690F83D300BB354
:10225000022384F83D30211D2068FFF7BBFF0123D6
:1022600084F8483084F83E3084F83F3084F84030B9
:1022700084F8413084F8423084F8433084F84430A4
:1022800084F8453084F8463084F8473084F83D308F
:10229000002010BD80F83C30FEF7F8FAD8E70120A6
:1022A000704758B310B5044690F83D300BB3022385
:1022B00084F83D30211D2068FFF78CFF012384F84E
:1022C000483084F83E3084F83F3084F8403084F859
:1022D000413084F8423084F8433084F8443084F844
:1022E000453084F8463084F8473084F83D3000208B
:1022F00010BD80F83C30FEF7B3FAD8E701207047F4
:1023000058B310B5044690F83D300BB3022384F85F
:102310003D30211D2068FFF75DFF012384F8483020
:1023200084F83E3084F83F3084F8403084F84130FF
:1023300084F8423084F8433084F8443084F84530DF
:1023400084F8463084F8473084F83D30002010BDD2
:1023500080F83C30FFF7B5FED8E701207047000059
:1023600030B4036A23F010030362036A446882698D
:1023700022F0807222F4E6420D6842EA052223F040
:1023800020038D6843EA0513124DA84219D0114D60
:10239000A84207D005F5A055A84203D005F58065F1
:1023A000A84207D124F440644D6944EA85048D694C
:1023B00044EA8504446082614A688263036230BCF7
:1023C000704723F08003CD6843EA051323F04003F0
:1023D000DDE700BF002C014090F83C30012B2ED0EF
:1023E00010B50446012380F83C30142A0FD8DFE8EA
:1023F00002F00B0E0E0E120E0E0E160E0E0E1A0E12
:102400000E0E1E0E0E0E22000068FFF72BFD0020A0
:1024100084F83C0010BD0068FFF7A2FFF7E70068F2
:10242000FFF75EFDF3E70068FFF794FDEFE7006854
:10243000FFF7BEFDEBE70068FFF7E6FDE7E70220E8
:10244000704738B590F83C30012B00F08C800D4679
:102450000446012380F83C30142A1ED8DFE802F03D
:102460000B1D1D1D211D1D1D351D1D1D481D1D1D67
:102470005C1D1D1D6F000068FFF7F4FC2268936966
:1024800043F0080393612268936923F00403936186
:102490002268936929690B439361002084F83C000A
:1024A00038BD0068FFF75CFF2268936943F400635E
:1024B00093612268936923F480639361226893692E
:1024C000296943EA01239361E7E70068FFF708FD04
:1024D0002268D36943F00803D3612268D36923F0EB
:1024E0000403D3612268D36929690B43D361D4E71C
:1024F0000068FFF72FFD2268D36943F40063D361BE
:102500002268D36923F48063D3612268D36929697F
:1025100043EA0123D361C0E70068FFF749FD226861
:10252000536D43F0080353652268536D23F0040391
:1025300053652268536D29690B435365ADE7006805
:10254000FFF762FD2268536D43F400635365226810
:10255000536D23F4806353652268536D296943EA00
:102560000123536599E702209AE710B4846824F4A4
:102570007F4442EA03230B43234383605DF8044B0B
:102580007047000090F83C30012B64D010B5044631
:10259000012380F83C30022380F83D3002689068C7
:1025A0002E4B034093600B68402B4AD013D9602B0D
:1025B0003DD01ED9702B28D0B3F5005F30D1CB6849
:1025C0004A6889682068FFF7D0FF2268936843F45F
:1025D0008043936024E0102B06D004D9202B03D035
:1025E000302B01D01CE0DBB919462068FFF761FDF4
:1025F00016E0502B14D1CA6849682068FFF732FDF5
:1026000050212068FFF755FD0AE0CB684A688968C9
:102610002068FFF7AAFF2268936843F0770393606E
:10262000012384F83D30002084F83C0010BDCA68C6
:1026300049682068FFF729FD60212068FFF739FD10
:10264000EEE7CA6849682068FFF70CFD4021206862
:10265000FFF72FFDE4E70220704700BF8800FEFF70
:1026600010B401F01F01012303FA01F4036A23EA05
:1026700004030362036A8A40134303625DF8044B58
:10268000704700000A46002936D190F83E30DBB290
:1026900013F1FF3318BF0123002B40F0878010B5E2
:1026A000002A59D1022380F83E3011460446012207
:1026B0000068FFF7D5FF23683F4A934207D002F531
:1026C000A052934203D002F58062934203D15A6C28
:1026D00042F400425A642368374A934258D0B3F117
:1026E000804F55D002F5A052934251D01A6842F063
:1026F00001021A60002010BD04290DD0082913D052
:102700000C2919D010291FD090F84330DBB213F1F7
:10271000FF3318BF0123BFE790F83F30DBB213F15E
:10272000FF3318BF0123B7E790F84030DBB213F155
:10273000FF3318BF0123AFE790F84130DBB213F14C
:10274000FF3318BF0123A7E790F84230DBB213F143
:10275000FF3318BF01239FE7042A09D0082A0BD0B2
:102760000C2A0DD0102A0FD0022380F843309CE7AA
:10277000022380F83F3098E7022380F8403094E746
:10278000022380F8413090E7022380F842308CE742
:1027900099680A4A0A40062A0AD0B2F5803F09D051
:1027A0001A6842F001021A600020A4E70120704775
:1027B0000020A0E700209EE7002C01400700010058
:1027C00038B50D46002930D190F83E40E4B2022CD5
:1027D00014BF00240124002C40F03181002D54D17D
:1027E00090F83E10C9B2012914BF0021012100292F
:1027F00000F02781002A78D0002D7AD1022180F8BC
:102800003E10114604460C2D00F2A480DFE815F0BE
:102810008D00A200A200A200C800A200A200A20097
:10282000DE00A200A200A200F40004290DD00829B5
:1028300013D00C2919D010291FD090F84340E4B2CE
:10284000022C14BF00240124C5E790F83F40E4B2F5
:10285000022C14BF00240124BDE790F84040E4B2EC
:10286000022C14BF00240124B5E790F84140E4B2E3
:10287000022C14BF00240124ADE790F84240E4B2DA
:10288000022C14BF00240124A5E7042D0DD0082D2F
:1028900013D00C2D19D0102D1FD090F84310C9B2B1
:1028A000012914BF00210121A1E790F83F10C9B20E
:1028B000012914BF0021012199E790F84010C9B205
:1028C000012914BF0021012191E790F84110C9B2FC
:1028D000012914BF0021012189E790F84210C9B2F3
:1028E000012914BF0021012181E7002B84D00120A0
:1028F000A8E0042D09D0082D0BD00C2D0DD0102DE3
:102900000FD0022180F843107BE7022180F83F10AE
:1029100077E7022180F8401073E7022180F8411028
:102920006FE7022180F842106BE7426A4C48D062A0
:10293000626A4C481063626A4B48506322683432C2
:10294000606AFEF7D1F900287DD12268D36843F48C
:102950000073D360012229462068FFF781FE2368B7
:10296000424A934207D002F5A052934203D002F5A7
:102970008062934203D15A6C42F400425A64236845
:102980003A4A93424DD0B3F1804F4AD002F5A0525B
:10299000934246D01A6842F001021A60002051E0CA
:1029A000826A2F48D062A26A2E481063A26A2E481B
:1029B000506322683832A06AFEF796F9002844D1A5
:1029C0002268D36843F48063D360C3E7C26A2448B3
:1029D000D062E26A23481063E26A234850632268A7
:1029E0003C32E06AFEF780F9002830D12268D368D3
:1029F00043F40063D360ADE7026B1948D062226BE9
:102A000018481063226B1848506322684032206BCC
:102A1000FEF76AF9E8B92268D36843F48053D360BB
:102A200098E79968124A0A40062A14D0B2F5803F06
:102A300013D01A6842F001021A60002002E002205E
:102A400000E0012038BD0120FCE70120FAE7012069
:102A5000F8E70120F6E70020F4E70020F2E700BFE6
:102A6000C52000083721000877210008002C01400C
:102A70000700010038B504460D460C2910D8DFE8E0
:102A800001F0070F0F0F3D0F0F0F460F0F0F4F00F5
:102A90000268D36823F40073D360406AFEF75FF9DD
:102AA000002229462068FFF7DBFD2368334A934262
:102AB0003FD002F5A05293423BD002F58062934290
:102AC00037D02368196A41F21112114208D1196AEC
:102AD00040F24442114203D11A6822F001021A6006
:102AE000002D35D0042D38D0082D3AD00C2D3CD0F7
:102AF000102D3ED0012384F843302CE00268D368C7
:102B000023F48063D360806AFEF729F9C8E702687E
:102B1000D36823F40063D360C06AFEF720F9BFE7EF
:102B20000268D36823F48053D360006BFEF717F973
:102B3000B6E7196A41F211121142C2D1196A40F284
:102B400044421142BDD15A6C22F400425A64B8E7A3
:102B5000012384F83E30002038BD012384F83F3043
:102B6000F9E7012384F84030F5E7012384F8413088
:102B7000F1E7012384F84230EDE700BF002C01406B
:102B800090F83C30012B2FD030B4012380F83C303A
:102B9000022380F83D30026853689568134CA242C6
:102BA0001DD023F070030C682343536003680F4A61
:102BB000934206D0B3F1804F03D002F5A052934266
:102BC00004D125F080058A6815439D60012380F8B3
:102BD0003D30002380F83C30184630BC704723F469
:102BE00070034C682343DCE702207047002C01404F
:102BF00090F83C30012B3BD010B4012380F83C30DE
:102C0000CB6823F440738A68134323F480634A68D3
:102C1000134323F400630A68134323F480530A69BF
:102C2000134323F400534A69134323F480438A6A0D
:102C3000134323F470238A6943EA024302680D4C6C
:102C4000A24207D05364002380F83C3018465DF858
:102C5000044B704723F470034C6A43EA045323F097
:102C60008073CC69234323F00073096A0B43E9E7BF
:102C700002207047002C01402DE9D8480446016825
:102C800083680269134342691343C26913430868A6
:102C90008C4A024013430B602268536823F440536C
:102CA000E1680B435360A1692268874B9A4201D0C7
:102CB000236A1943936823F430630B4393602368BA
:102CC000824A93421CD0824A93422DD07E4A93423C
:102CD00043D010227C498B425ED0E369B3F5004FAC
:102CE00000F08C80082A00F2E780DFE812F0B700DD
:102CF000CE00B500E500D100E500E500E500D40018
:102D000002F55842D2F8882002F00302032A09D8BB
:102D1000DFE802F002043C060122DBE70422D9E7E7
:102D20000822D7E71022D5E702F5E632D2F888204C
:102D300002F00C020C2A0ED8DFE802F0070D0D0D90
:102D4000090D0D0D2A0D0D0D0B000022C2E7042206
:102D5000C0E70822BEE71022BCE702F5C832D2F86D
:102D6000882002F44062B2F5806F0BD007D9B2F52B
:102D7000006F0FD0B2F5406F06D10822AAE71AB94A
:102D80000022A7E70422A5E71022A3E70222A1E779
:102D900002229FE702229DE7082A7FD8DFE802F09F
:102DA000087E107E0D7E7E7E05004FF4004008E018
:102DB000FEF70AFE28B9002062E0FEF7B3F9F9E752
:102DC0004448626802EB4203834269D8B0EB023F99
:102DD00068D80023070E0602500816EB000B47F1D7
:102DE000000C58466146FDF7F3F9A0F540723A4BE6
:102DF0009A4259D82368D860002041E0082A55D863
:102E0000DFE802F0072105542454545427003148C8
:102E100003E0FEF7D9FD00284AD06268530803EBAF
:102E20004003B3FBF2F39BB2A3F110014FF6EF7234
:102E300091423FD823F00F02C3F3420313432268A9
:102E4000D36000201CE0FEF7D1FDE4E7FEF76AF94D
:102E5000E1E74FF40040E0E71E4802E0FEF7B4FD72
:102E600060B3636800EB5300B0FBF3F080B2A0F1F5
:102E700010024FF6EF739A4222D82368D8600020E0
:102E8000002323666366BDE8D888FEF7AFFDE7E759
:102E9000FEF748F9E4E74FF40040E2E70120EFE7EE
:102EA0000120EDE70120EBE70120E9E70120E7E75A
:102EB0000020E5E70120E3E70120E1E70020DFE76C
:102EC0000120DDE7F369FFEF00800040003801409A
:102ED000004400400024F400FFFC0F00436A13F09C
:102EE000010F06D00268536823F40033816A0B4354
:102EF0005360436A13F0020F06D00268536823F44C
:102F00008033C16A0B435360436A13F0040F06D049
:102F10000268536823F48023016B0B435360436AB8
:102F200013F0080F06D00268536823F40043416B86
:102F30000B435360436A13F0100F06D00268936886
:102F400023F48053816B0B439360436A13F0200F8B
:102F500006D00268936823F40053C16B0B4393605F
:102F6000436A13F0400F0AD00268536823F48013B9
:102F7000016C0B435360036CB3F5801F0BD0436AA5
:102F800013F0800F06D00268536823F40023816C8D
:102F90000B43536070470268536823F4C003416CCD
:102FA0000B435360EBE72DE9F04104460F4616460C
:102FB0009846069D2368DB6937EA03030CBF0123AB
:102FC0000023B3423AD1B5F1FF3FF3D0FDF788FDBE
:102FD000A0EB0800A8421FD8F5B123681A6812F0C8
:102FE000040FE7D0DA6912F4006FE3D04FF4006207
:102FF0001A622268136823F4D073136022689368FE
:1030000023F00103936020236367A367E367002332
:1030100084F87030032012E02268136823F4D07320
:1030200013602268936823F0010393602023636791
:10303000A367002384F87030032000E00020BDE87F
:10304000F08130B583B004460023C367FDF748FD27
:10305000054623681B6813F0080F0CD123681B6812
:1030600013F0040F15D120236367A367002084F8B1
:10307000700003B030BD6FF07E4300930346002222
:103080004FF400112046FFF78EFF0028E6D0032002
:10309000EFE76FF07E4300932B4600224FF4800150
:1030A0002046FFF780FF0028DDD00320E1E768B36A
:1030B00010B50446436F03B3242363672268136883
:1030C00023F0010313602046FFF7D6FD012813D03B
:1030D000636ABBB92268536823F490435360226843
:1030E000936823F02A0393602268136843F0010376
:1030F00013602046FFF7A5FF10BD80F87030FDF784
:1031000041FCD9E72046FFF7E9FEE3E701207047DD
:10311000DFF834D0FDF77EFC002103E00B4B5B5859
:10312000435004310A480B4B42189A42F6D30A4ADC
:1031300002E0002342F8043B084B9A42F9D300F026
:1031400011F8FDF75FFBFEE70000012038320008B0
:10315000000000201000002010000020C40100200A
:10316000FEE7000070B50D4E0D4CA41BA410002509
:10317000A54209D10B4E0C4C00F020F8A41BA41062
:103180000025A54205D170BD56F825309847013578
:10319000EEE756F8253098470135F2E72832000867
:1031A00028320008283200082C3200080244034666
:1031B000934200D1704703F8011BF9E7F8B500BF4F
:1031C000F8BC08BC9E467047F8B500BFF8BC08BC08
:0831D0009E467047000000005C
:1031D800A0860100400D0300801A060000350C008F
:1031E80040420F0080841E0000093D0000127A0052
:1031F8000024F40000366E010048E801006CDC028F
:10320800000000000000000001020304060708098E
:083218000000000001020304A4
:08322000E0CFFF7F0100000078
:08322800B501000800000000E0
:083230009101000800000000FC
:1032380000093D000100000010000000000000002F
:0400000508003111AD
:00000001FF
